{"contracts/GameRewards.sol":{"GameRewards":{"abi":[{"inputs":[{"internalType":"address","name":"_sudoToken","type":"address"}],"stateMutability":"nonpayable","type":"constructor"},{"inputs":[],"name":"EnforcedPause","type":"error"},{"inputs":[],"name":"ExpectedPause","type":"error"},{"inputs":[{"internalType":"address","name":"owner","type":"address"}],"name":"OwnableInvalidOwner","type":"error"},{"inputs":[{"internalType":"address","name":"account","type":"address"}],"name":"OwnableUnauthorizedAccount","type":"error"},{"inputs":[],"name":"ReentrancyGuardReentrantCall","type":"error"},{"anonymous":false,"inputs":[{"indexed":true,"internalType":"string","name":"gameType","type":"string"},{"indexed":false,"internalType":"uint256","name":"minReward","type":"uint256"},{"indexed":false,"internalType":"uint256","name":"maxReward","type":"uint256"}],"name":"GameRewardConfigured","type":"event"},{"anonymous":false,"inputs":[{"indexed":true,"internalType":"address","name":"previousOwner","type":"address"},{"indexed":true,"internalType":"address","name":"newOwner","type":"address"}],"name":"OwnershipTransferred","type":"event"},{"anonymous":false,"inputs":[{"indexed":false,"internalType":"address","name":"account","type":"address"}],"name":"Paused","type":"event"},{"anonymous":false,"inputs":[{"indexed":true,"internalType":"address","name":"player","type":"address"},{"indexed":false,"internalType":"uint256","name":"newLevel","type":"uint256"}],"name":"PlayerLevelUp","type":"event"},{"anonymous":false,"inputs":[{"indexed":true,"internalType":"address","name":"player","type":"address"},{"indexed":false,"internalType":"uint256","name":"amount","type":"uint256"},{"indexed":false,"internalType":"string","name":"gameType","type":"string"}],"name":"RewardDistributed","type":"event"},{"anonymous":false,"inputs":[{"indexed":true,"internalType":"address","name":"player","type":"address"},{"indexed":false,"internalType":"uint256","name":"amount","type":"uint256"}],"name":"RewardsClaimed","type":"event"},{"anonymous":false,"inputs":[{"indexed":true,"internalType":"address","name":"player","type":"address"},{"indexed":false,"internalType":"uint256","name":"streak","type":"uint256"}],"name":"StreakUpdated","type":"event"},{"anonymous":false,"inputs":[{"indexed":false,"internalType":"address","name":"account","type":"address"}],"name":"Unpaused","type":"event"},{"inputs":[],"name":"MIN_REWARD_INTERVAL","outputs":[{"internalType":"uint256","name":"","type":"uint256"}],"stateMutability":"view","type":"function"},{"inputs":[],"name":"claimRewards","outputs":[],"stateMutability":"nonpayable","type":"function"},{"inputs":[],"name":"dailyRewardCap","outputs":[{"internalType":"uint256","name":"","type":"uint256"}],"stateMutability":"view","type":"function"},{"inputs":[{"internalType":"address","name":"","type":"address"}],"name":"dailyRewardsClaimed","outputs":[{"internalType":"uint256","name":"","type":"uint256"}],"stateMutability":"view","type":"function"},{"inputs":[{"internalType":"address","name":"player","type":"address"},{"internalType":"uint256","name":"baseScore","type":"uint256"},{"internalType":"string","name":"gameType","type":"string"},{"internalType":"uint256","name":"timeSpent","type":"uint256"},{"internalType":"bool","name":"perfectScore","type":"bool"}],"name":"distributeReward","outputs":[],"stateMutability":"nonpayable","type":"function"},{"inputs":[{"internalType":"address","name":"player","type":"address"},{"internalType":"uint256","name":"amount","type":"uint256"}],"name":"emergencyReward","outputs":[],"stateMutability":"nonpayable","type":"function"},{"inputs":[{"internalType":"string","name":"","type":"string"}],"name":"gameRewards","outputs":[{"internalType":"uint256","name":"minReward","type":"uint256"},{"internalType":"uint256","name":"maxReward","type":"uint256"},{"internalType":"uint256","name":"multiplier","type":"uint256"},{"internalType":"bool","name":"isActive","type":"bool"}],"stateMutability":"view","type":"function"},{"inputs":[{"internalType":"address","name":"player","type":"address"}],"name":"getPlayerInfo","outputs":[{"internalType":"uint256","name":"totalEarned","type":"uint256"},{"internalType":"uint256","name":"gamesPlayed","type":"uint256"},{"internalType":"uint256","name":"currentLevel","type":"uint256"},{"internalType":"uint256","name":"currentStreak","type":"uint256"},{"internalType":"uint256","name":"pendingReward","type":"uint256"},{"internalType":"uint256","name":"dailyClaimed","type":"uint256"}],"stateMutability":"view","type":"function"},{"inputs":[{"internalType":"address","name":"","type":"address"}],"name":"lastRewardDate","outputs":[{"internalType":"uint256","name":"","type":"uint256"}],"stateMutability":"view","type":"function"},{"inputs":[],"name":"levelMultiplier","outputs":[{"internalType":"uint256","name":"","type":"uint256"}],"stateMutability":"view","type":"function"},{"inputs":[],"name":"owner","outputs":[{"internalType":"address","name":"","type":"address"}],"stateMutability":"view","type":"function"},{"inputs":[],"name":"pause","outputs":[],"stateMutability":"nonpayable","type":"function"},{"inputs":[],"name":"paused","outputs":[{"internalType":"bool","name":"","type":"bool"}],"stateMutability":"view","type":"function"},{"inputs":[{"internalType":"address","name":"","type":"address"}],"name":"pendingRewards","outputs":[{"internalType":"uint256","name":"","type":"uint256"}],"stateMutability":"view","type":"function"},{"inputs":[{"internalType":"address","name":"","type":"address"}],"name":"playerStats","outputs":[{"internalType":"uint256","name":"totalEarned","type":"uint256"},{"internalType":"uint256","name":"gamesPlayed","type":"uint256"},{"internalType":"uint256","name":"lastRewardTime","type":"uint256"},{"internalType":"uint256","name":"streak","type":"uint256"},{"internalType":"uint256","name":"level","type":"uint256"}],"stateMutability":"view","type":"function"},{"inputs":[],"name":"renounceOwnership","outputs":[],"stateMutability":"nonpayable","type":"function"},{"inputs":[{"internalType":"string","name":"gameType","type":"string"},{"internalType":"uint256","name":"minReward","type":"uint256"},{"internalType":"uint256","name":"maxReward","type":"uint256"},{"internalType":"uint256","name":"multiplier","type":"uint256"}],"name":"setGameReward","outputs":[],"stateMutability":"nonpayable","type":"function"},{"inputs":[],"name":"streakMultiplier","outputs":[{"internalType":"uint256","name":"","type":"uint256"}],"stateMutability":"view","type":"function"},{"inputs":[],"name":"sudoToken","outputs":[{"internalType":"contract SudoToken","name":"","type":"address"}],"stateMutability":"view","type":"function"},{"inputs":[{"internalType":"string","name":"gameType","type":"string"}],"name":"toggleGameReward","outputs":[],"stateMutability":"nonpayable","type":"function"},{"inputs":[{"internalType":"address","name":"newOwner","type":"address"}],"name":"transferOwnership","outputs":[],"stateMutability":"nonpayable","type":"function"},{"inputs":[],"name":"unpause","outputs":[],"stateMutability":"nonpayable","type":"function"},{"inputs":[{"internalType":"uint256","name":"_dailyRewardCap","type":"uint256"},{"internalType":"uint256","name":"_streakMultiplier","type":"uint256"},{"internalType":"uint256","name":"_levelMultiplier","type":"uint256"}],"name":"updatePlatformSettings","outputs":[],"stateMutability":"nonpayable","type":"function"}],"evm":{"bytecode":{"linkReferences":{},"object":"60a060405269021e19e0c9bab24000006005556104b060065560326007553480156200002a57600080fd5b5060405162001a7d38038062001a7d8339810160408190526200004d91620003f6565b33806200007557604051631e4fbdf760e01b8152600060048201526024015b60405180910390fd5b620000808162000232565b50600180556001600160a01b03811660805260408051808201909152600e81526d70617373776f72642d637261636b60901b6020820152620000d9906802b5e3af16b1880000680ad78ebc5ac62000006103e862000282565b60408051808201909152600c81526b3732ba3bb7b93596b9b1b0b760a11b60208201526200011e9068015af1d78b58c40000680821ab0d44149800006103e862000282565b60408051808201909152600a8152691cdc5b0b5a5b9a9958dd60b21b6020820152620001619068056bc75e2d63100000681b1ae4d6e2ef5000006103e862000282565b60408051808201909152600a815269736f6369616c2d656e6760b01b6020820152620001a490680410d586a20a4c0000681043561a88293000006103e862000282565b60408051808201909152600c81526b63727970746f2d627265616b60a01b6020820152620001e990680ad78ebc5ac6200000683635c9adc5dea000006103e862000282565b6040805180820190915260088152677a65726f2d64617960c01b60208201526200022b90681b1ae4d6e2ef50000069010f0cf064dd592000006103e862000282565b5062000459565b600080546001600160a01b038381166001600160a01b0319831681178455604051919092169283917f8be0079c531659141344cd1fd0a4f28419497f9722a3daafe3b4186f6b6457e09190a35050565b82821015620002d45760405162461bcd60e51b815260206004820152601460248201527f496e76616c6964207265776172642072616e676500000000000000000000000060448201526064016200006c565b6101f48110158015620002e957506107d08111155b6200032c5760405162461bcd60e51b815260206004820152601260248201527124b73b30b634b21036bab63a34b83634b2b960711b60448201526064016200006c565b60405180608001604052808481526020018381526020018281526020016001151581525060028560405162000362919062000428565b9081526040805160209281900383018120845181559284015160018401559083015160028301556060909201516003909101805460ff1916911515919091179055620003b090859062000428565b6040805191829003822085835260208301859052917fef0ad5bddce44bb76c0b6ba0e07c96a23cc6ecd53f7c10e6cd3b18ec18958f6e910160405180910390a250505050565b6000602082840312156200040957600080fd5b81516001600160a01b03811681146200042157600080fd5b9392505050565b6000825160005b818110156200044b57602081860181015185830152016200042f565b506000920191825250919050565b6080516116016200047c60003960008181610348015261057f01526116016000f3fe608060405234801561001057600080fd5b506004361061014d5760003560e01c80638456cb59116100c3578063b1d0b22f1161007c578063b1d0b22f146103a3578063b1ff9ba1146103ac578063cdafbbb6146103b4578063dda82b1f1461041a578063f2fde38b1461043a578063ff4385521461044d57600080fd5b80638456cb59146103165780638da5cb5b1461031e5780638e848283146103435780639306d82f1461036a578063967689dc1461037d578063a5db604a1461039057600080fd5b80634ec9eefe116101155780634ec9eefe146101ca57806359328401146102325780635c975abb146102df578063715018a6146102fc57806376c97a621461030457806376e8e6c11461030d57600080fd5b80631e7113fd1461015257806320c1ed1e1461018557806331d7a2621461019a578063372500ab146101ba5780633f4ba83a146101c2575b600080fd5b61017261016036600461123e565b60096020526000908152604090205481565b6040519081526020015b60405180910390f35b610198610193366004611260565b610460565b005b6101726101a836600461123e565b60046020526000908152604090205481565b61019861050a565b610198610688565b6102106101d83660046112a0565b805160208183018101805160028083529383019290940191909120929052815460018301549183015460039093015490929060ff1684565b604080519485526020850193909352918301521515606082015260800161017c565b6102b261024036600461123e565b6001600160a01b03166000818152600360208181526040808420815160a081018352815480825260018301548286018190526002840154838601529583015460608301819052600493840154608090930183905297875291845282862054600890945291909420549395929490939092565b604080519687526020870195909552938501929092526060840152608083015260a082015260c00161017c565b600054600160a01b900460ff16604051901515815260200161017c565b610198610698565b61017260065481565b61017260075481565b6101986106aa565b6000546001600160a01b03165b6040516001600160a01b03909116815260200161017c565b61032b7f000000000000000000000000000000000000000000000000000000000000000081565b61019861037836600461139a565b6106ba565b61019861038b366004611419565b610a44565b61019861039e366004611473565b610a97565b61017260055481565b610172601e81565b6103f26103c236600461123e565b60036020819052600091825260409091208054600182015460028301549383015460049093015491939092909185565b604080519586526020860194909452928401919091526060830152608082015260a00161017c565b61017261042836600461123e565b60086020526000908152604090205481565b61019861044836600461123e565b610b00565b61019861045b3660046114b5565b610b3e565b610468610b54565b683635c9adc5dea000008111156104c65760405162461bcd60e51b815260206004820152601a60248201527f456d657267656e63792072657761726420746f6f206c6172676500000000000060448201526064015b60405180910390fd5b6001600160a01b0382166000908152600460205260409020546104ea9082906114f7565b6001600160a01b0390921660009081526004602052604090209190915550565b610512610b81565b61051a610bab565b336000908152600460205260409020548061056d5760405162461bcd60e51b81526020600482015260136024820152724e6f207265776172647320746f20636c61696d60681b60448201526064016104bd565b336000818152600460205260408120557f00000000000000000000000000000000000000000000000000000000000000006001600160a01b03169063a5ffefe6906040516001600160e01b031960e084901b1681526001600160a01b0390911660048201526024810184905260606044820152600e60648201526d67616d696e675f7265776172647360901b608482015260a401600060405180830381600087803b15801561061b57600080fd5b505af115801561062f573d6000803e3d6000fd5b5050505061063a3390565b6001600160a01b03167ffc30cddea38e2bf4d6ea7d3f9ed3b6ad7f176419f4963bd81318067a4aee73fe8260405161067491815260200190565b60405180910390a25061068660018055565b565b610690610b54565b610686610bd6565b6106a0610b54565b6106866000610c2b565b6106b2610b54565b610686610c7b565b6106c2610b54565b6106ca610bab565b6106d2610b81565b6001600160a01b0386166107215760405162461bcd60e51b8152602060048201526016602482015275496e76616c696420706c61796572206164647265737360501b60448201526064016104bd565b6002848460405161073392919061150a565b9081526040519081900360200190206003015460ff1661078c5760405162461bcd60e51b815260206004820152601460248201527347616d652074797065206e6f742061637469766560601b60448201526064016104bd565b6001600160a01b0386166000908152600360205260409020600201546107b490601e906114f7565b4210156108035760405162461bcd60e51b815260206004820152601a60248201527f546f6f206672657175656e742072657761726420636c61696d7300000000000060448201526064016104bd565b6000610812620151804261151a565b6001600160a01b0388166000908152600960205260409020549091508114610865576001600160a01b03871660009081526008602090815260408083208390556009909152902081905561086587610cbe565b6005546001600160a01b038816600090815260086020526040902054106108ce5760405162461bcd60e51b815260206004820152601960248201527f4461696c7920726577617264206361702065786365656465640000000000000060448201526064016104bd565b60006109148787878080601f016020809104026020016040519081016040528093929190818152602001838380828437600092019190915250899250889150610da59050565b90506109208882610ee5565b6005546001600160a01b038a166000908152600860205260409020549192509061094b9083906114f7565b111561097a576001600160a01b038816600090815260086020526040902054600554610977919061153c565b90505b6109848882610fd3565b6001600160a01b0388166000908152600460205260409020546109a89082906114f7565b6001600160a01b0389166000908152600460209081526040808320939093556008905220546109d89082906114f7565b6001600160a01b038916600081815260086020526040908190209290925590517f49649141d16971a88c3cfdd73fec34babb1cf163cf8b804c8f537a023c6ce50690610a299084908a908a9061154f565b60405180910390a25050610a3c60018055565b505050505050565b610a4c610b54565b610a9085858080601f01602080910402602001604051908101604052809392919081815260200183838082843760009201919091525087925086915085905061109f565b5050505050565b610a9f610b54565b60028282604051610ab192919061150a565b9081526040519081900360200181206003015460ff161590600290610ad9908590859061150a565b908152604051908190036020019020600301805491151560ff199092169190911790555050565b610b08610b54565b6001600160a01b038116610b3257604051631e4fbdf760e01b8152600060048201526024016104bd565b610b3b81610c2b565b50565b610b46610b54565b600592909255600655600755565b6000546001600160a01b031633146106865760405163118cdaa760e01b81523360048201526024016104bd565b600260015403610ba457604051633ee5aeb560e01b815260040160405180910390fd5b6002600155565b600054600160a01b900460ff16156106865760405163d93c066560e01b815260040160405180910390fd5b610bde6111f8565b6000805460ff60a01b191690557f5db9ee0a495bf2e6ff9c91a7834c1ba4fdd244a5e8aa4e537bd38aeae4b073aa335b6040516001600160a01b03909116815260200160405180910390a1565b600080546001600160a01b038381166001600160a01b0319831681178455604051919092169283917f8be0079c531659141344cd1fd0a4f28419497f9722a3daafe3b4186f6b6457e09190a35050565b610c83610bab565b6000805460ff60a01b1916600160a01b1790557f62e78cea01bee320cd4e420270b5ea74000d11b0c9f74754ebdbfc544b05a258610c0e3390565b6001600160a01b038116600090815260036020526040812090610ce4620151804261151a565b6001600160a01b038416600090815260096020526040812054919250819003610d135760016003840155610d58565b610d1e8160016114f7565b8203610d3e576003830154610d349060016114f7565b6003840155610d58565b610d498160016114f7565b821115610d5857600160038401555b836001600160a01b03167f46f6fe577ecfefe55b0f14f0b42ddb4c22db1fb9bade43aa02c5ef4e5439512e8460030154604051610d9791815260200190565b60405180910390a250505050565b600080600285604051610db89190611585565b908152604080519182900360209081018320608084018352805484526001810154918401919091526002810154918301919091526003015460ff1615156060820152905060006127108711610e2557612710610e16886103e86115b4565b610e20919061151a565b610e29565b6103e85b90506000603c8610610e4b5760b48610610e44576064610e4e565b6096610e4e565b60c85b60ff169050600085610e61576064610e64565b60965b60ff169050600084600001518560200151610e7f919061153c565b905060006103e8610e9086846115b4565b610e9a919061151a565b8651610ea691906114f7565b90506064610eb485836115b4565b610ebe919061151a565b90506064610ecc84836115b4565b610ed6919061151a565b9b9a5050505050505050505050565b6001600160a01b0382166000908152600360208181526040808420815160a081018352815481526001820154938101939093526002810154918301919091529182015460608201819052600490920154608082015290839015610f7f57600082606001516032610f5591906115b4565b600654610f6291906114f7565b90506103e8610f7182846115b4565b610f7b919061151a565b9150505b600182608001511115610fc95760006007548360800151610fa091906115b4565b610fac906103e86114f7565b90506103e8610fbb82846115b4565b610fc5919061151a565b9150505b9150505b92915050565b6001600160a01b03821660009081526003602052604090208054610ff89083906114f7565b8155600180820154611009916114f7565b6001820155426002820155805460009061102e9069021e19e0c9bab24000009061151a565b600a836001015461103f919061151a565b61104991906114f7565b9050816004015481111561109957600482018190556040518181526001600160a01b038516907fcbadce0717dab60d3dc2a5a3641c2cac2fb6487782b4a9726ea97d47ca9913ff90602001610d97565b50505050565b828210156110e65760405162461bcd60e51b8152602060048201526014602482015273496e76616c6964207265776172642072616e676560601b60448201526064016104bd565b6101f481101580156110fa57506107d08111155b61113b5760405162461bcd60e51b815260206004820152601260248201527124b73b30b634b21036bab63a34b83634b2b960711b60448201526064016104bd565b60405180608001604052808481526020018381526020018281526020016001151581525060028560405161116f9190611585565b9081526040805160209281900383018120845181559284015160018401559083015160028301556060909201516003909101805460ff19169115159190911790556111bb908590611585565b6040805191829003822085835260208301859052917fef0ad5bddce44bb76c0b6ba0e07c96a23cc6ecd53f7c10e6cd3b18ec18958f6e9101610d97565b600054600160a01b900460ff1661068657604051638dfc202b60e01b815260040160405180910390fd5b80356001600160a01b038116811461123957600080fd5b919050565b60006020828403121561125057600080fd5b61125982611222565b9392505050565b6000806040838503121561127357600080fd5b61127c83611222565b946020939093013593505050565b634e487b7160e01b600052604160045260246000fd5b6000602082840312156112b257600080fd5b813567ffffffffffffffff808211156112ca57600080fd5b818401915084601f8301126112de57600080fd5b8135818111156112f0576112f061128a565b604051601f8201601f19908116603f011681019083821181831017156113185761131861128a565b8160405282815287602084870101111561133157600080fd5b826020860160208301376000928101602001929092525095945050505050565b60008083601f84011261136357600080fd5b50813567ffffffffffffffff81111561137b57600080fd5b60208301915083602082850101111561139357600080fd5b9250929050565b60008060008060008060a087890312156113b357600080fd5b6113bc87611222565b955060208701359450604087013567ffffffffffffffff8111156113df57600080fd5b6113eb89828a01611351565b909550935050606087013591506080870135801515811461140b57600080fd5b809150509295509295509295565b60008060008060006080868803121561143157600080fd5b853567ffffffffffffffff81111561144857600080fd5b61145488828901611351565b9099909850602088013597604081013597506060013595509350505050565b6000806020838503121561148657600080fd5b823567ffffffffffffffff81111561149d57600080fd5b6114a985828601611351565b90969095509350505050565b6000806000606084860312156114ca57600080fd5b505081359360208301359350604090920135919050565b634e487b7160e01b600052601160045260246000fd5b80820180821115610fcd57610fcd6114e1565b8183823760009101908152919050565b60008261153757634e487b7160e01b600052601260045260246000fd5b500490565b81810381811115610fcd57610fcd6114e1565b83815260406020820152816040820152818360608301376000818301606090810191909152601f909201601f1916010192915050565b6000825160005b818110156115a6576020818601810151858301520161158c565b506000920191825250919050565b8082028115828204841417610fcd57610fcd6114e156fea264697066735822122089cc29fed28e2f96670bc0e47cb4ad05d9f61e1d1849b0923b22930f0d47b45f64736f6c63430008140033","opcodes":"PUSH1 0xA0 PUSH1 0x40 MSTORE PUSH10 0x21E19E0C9BAB2400000 PUSH1 0x5 SSTORE PUSH2 0x4B0 PUSH1 0x6 SSTORE PUSH1 0x32 PUSH1 0x7 SSTORE CALLVALUE DUP1 ISZERO PUSH3 0x2A JUMPI PUSH1 0x0 DUP1 REVERT JUMPDEST POP PUSH1 0x40 MLOAD PUSH3 0x1A7D CODESIZE SUB DUP1 PUSH3 0x1A7D DUP4 CODECOPY DUP2 ADD PUSH1 0x40 DUP2 SWAP1 MSTORE PUSH3 0x4D SWAP2 PUSH3 0x3F6 JUMP JUMPDEST CALLER DUP1 PUSH3 0x75 JUMPI PUSH1 0x40 MLOAD PUSH4 0x1E4FBDF7 PUSH1 0xE0 SHL DUP2 MSTORE PUSH1 0x0 PUSH1 0x4 DUP3 ADD MSTORE PUSH1 0x24 ADD JUMPDEST PUSH1 0x40 MLOAD DUP1 SWAP2 SUB SWAP1 REVERT JUMPDEST PUSH3 0x80 DUP2 PUSH3 0x232 JUMP JUMPDEST POP PUSH1 0x1 DUP1 SSTORE PUSH1 0x1 PUSH1 0x1 PUSH1 0xA0 SHL SUB DUP2 AND PUSH1 0x80 MSTORE PUSH1 0x40 DUP1 MLOAD DUP1 DUP3 ADD SWAP1 SWAP2 MSTORE PUSH1 0xE DUP2 MSTORE PUSH14 0x70617373776F72642D637261636B PUSH1 0x90 SHL PUSH1 0x20 DUP3 ADD MSTORE PUSH3 0xD9 SWAP1 PUSH9 0x2B5E3AF16B1880000 PUSH9 0xAD78EBC5AC6200000 PUSH2 0x3E8 PUSH3 0x282 JUMP JUMPDEST PUSH1 0x40 DUP1 MLOAD DUP1 DUP3 ADD SWAP1 SWAP2 MSTORE PUSH1 0xC DUP2 MSTORE PUSH12 0x3732BA3BB7B93596B9B1B0B7 PUSH1 0xA1 SHL PUSH1 0x20 DUP3 ADD MSTORE PUSH3 0x11E SWAP1 PUSH9 0x15AF1D78B58C40000 PUSH9 0x821AB0D4414980000 PUSH2 0x3E8 PUSH3 0x282 JUMP JUMPDEST PUSH1 0x40 DUP1 MLOAD DUP1 DUP3 ADD SWAP1 SWAP2 MSTORE PUSH1 0xA DUP2 MSTORE PUSH10 0x1CDC5B0B5A5B9A9958DD PUSH1 0xB2 SHL PUSH1 0x20 DUP3 ADD MSTORE PUSH3 0x161 SWAP1 PUSH9 0x56BC75E2D63100000 PUSH9 0x1B1AE4D6E2EF500000 PUSH2 0x3E8 PUSH3 0x282 JUMP JUMPDEST PUSH1 0x40 DUP1 MLOAD DUP1 DUP3 ADD SWAP1 SWAP2 MSTORE PUSH1 0xA DUP2 MSTORE PUSH10 0x736F6369616C2D656E67 PUSH1 0xB0 SHL PUSH1 0x20 DUP3 ADD MSTORE PUSH3 0x1A4 SWAP1 PUSH9 0x410D586A20A4C0000 PUSH9 0x1043561A8829300000 PUSH2 0x3E8 PUSH3 0x282 JUMP JUMPDEST PUSH1 0x40 DUP1 MLOAD DUP1 DUP3 ADD SWAP1 SWAP2 MSTORE PUSH1 0xC DUP2 MSTORE PUSH12 0x63727970746F2D627265616B PUSH1 0xA0 SHL PUSH1 0x20 DUP3 ADD MSTORE PUSH3 0x1E9 SWAP1 PUSH9 0xAD78EBC5AC6200000 PUSH9 0x3635C9ADC5DEA00000 PUSH2 0x3E8 PUSH3 0x282 JUMP JUMPDEST PUSH1 0x40 DUP1 MLOAD DUP1 DUP3 ADD SWAP1 SWAP2 MSTORE PUSH1 0x8 DUP2 MSTORE PUSH8 0x7A65726F2D646179 PUSH1 0xC0 SHL PUSH1 0x20 DUP3 ADD MSTORE PUSH3 0x22B SWAP1 PUSH9 0x1B1AE4D6E2EF500000 PUSH10 0x10F0CF064DD59200000 PUSH2 0x3E8 PUSH3 0x282 JUMP JUMPDEST POP PUSH3 0x459 JUMP JUMPDEST PUSH1 0x0 DUP1 SLOAD PUSH1 0x1 PUSH1 0x1 PUSH1 0xA0 SHL SUB DUP4 DUP2 AND PUSH1 0x1 PUSH1 0x1 PUSH1 0xA0 SHL SUB NOT DUP4 AND DUP2 OR DUP5 SSTORE PUSH1 0x40 MLOAD SWAP2 SWAP1 SWAP3 AND SWAP3 DUP4 SWAP2 PUSH32 0x8BE0079C531659141344CD1FD0A4F28419497F9722A3DAAFE3B4186F6B6457E0 SWAP2 SWAP1 LOG3 POP POP JUMP JUMPDEST DUP3 DUP3 LT ISZERO PUSH3 0x2D4 JUMPI PUSH1 0x40 MLOAD PUSH3 0x461BCD PUSH1 0xE5 SHL DUP2 MSTORE PUSH1 0x20 PUSH1 0x4 DUP3 ADD MSTORE PUSH1 0x14 PUSH1 0x24 DUP3 ADD MSTORE PUSH32 0x496E76616C6964207265776172642072616E6765000000000000000000000000 PUSH1 0x44 DUP3 ADD MSTORE PUSH1 0x64 ADD PUSH3 0x6C JUMP JUMPDEST PUSH2 0x1F4 DUP2 LT ISZERO DUP1 ISZERO PUSH3 0x2E9 JUMPI POP PUSH2 0x7D0 DUP2 GT ISZERO JUMPDEST PUSH3 0x32C JUMPI PUSH1 0x40 MLOAD PUSH3 0x461BCD PUSH1 0xE5 SHL DUP2 MSTORE PUSH1 0x20 PUSH1 0x4 DUP3 ADD MSTORE PUSH1 0x12 PUSH1 0x24 DUP3 ADD MSTORE PUSH18 0x24B73B30B634B21036BAB63A34B83634B2B9 PUSH1 0x71 SHL PUSH1 0x44 DUP3 ADD MSTORE PUSH1 0x64 ADD PUSH3 0x6C JUMP JUMPDEST PUSH1 0x40 MLOAD DUP1 PUSH1 0x80 ADD PUSH1 0x40 MSTORE DUP1 DUP5 DUP2 MSTORE PUSH1 0x20 ADD DUP4 DUP2 MSTORE PUSH1 0x20 ADD DUP3 DUP2 MSTORE PUSH1 0x20 ADD PUSH1 0x1 ISZERO ISZERO DUP2 MSTORE POP PUSH1 0x2 DUP6 PUSH1 0x40 MLOAD PUSH3 0x362 SWAP2 SWAP1 PUSH3 0x428 JUMP JUMPDEST SWAP1 DUP2 MSTORE PUSH1 0x40 DUP1 MLOAD PUSH1 0x20 SWAP3 DUP2 SWAP1 SUB DUP4 ADD DUP2 KECCAK256 DUP5 MLOAD DUP2 SSTORE SWAP3 DUP5 ADD MLOAD PUSH1 0x1 DUP5 ADD SSTORE SWAP1 DUP4 ADD MLOAD PUSH1 0x2 DUP4 ADD SSTORE PUSH1 0x60 SWAP1 SWAP3 ADD MLOAD PUSH1 0x3 SWAP1 SWAP2 ADD DUP1 SLOAD PUSH1 0xFF NOT AND SWAP2 ISZERO ISZERO SWAP2 SWAP1 SWAP2 OR SWAP1 SSTORE PUSH3 0x3B0 SWAP1 DUP6 SWAP1 PUSH3 0x428 JUMP JUMPDEST PUSH1 0x40 DUP1 MLOAD SWAP2 DUP3 SWAP1 SUB DUP3 KECCAK256 DUP6 DUP4 MSTORE PUSH1 0x20 DUP4 ADD DUP6 SWAP1 MSTORE SWAP2 PUSH32 0xEF0AD5BDDCE44BB76C0B6BA0E07C96A23CC6ECD53F7C10E6CD3B18EC18958F6E SWAP2 ADD PUSH1 0x40 MLOAD DUP1 SWAP2 SUB SWAP1 LOG2 POP POP POP POP JUMP JUMPDEST PUSH1 0x0 PUSH1 0x20 DUP3 DUP5 SUB SLT ISZERO PUSH3 0x409 JUMPI PUSH1 0x0 DUP1 REVERT JUMPDEST DUP2 MLOAD PUSH1 0x1 PUSH1 0x1 PUSH1 0xA0 SHL SUB DUP2 AND DUP2 EQ PUSH3 0x421 JUMPI PUSH1 0x0 DUP1 REVERT JUMPDEST SWAP4 SWAP3 POP POP POP JUMP JUMPDEST PUSH1 0x0 DUP3 MLOAD PUSH1 0x0 JUMPDEST DUP2 DUP2 LT ISZERO PUSH3 0x44B JUMPI PUSH1 0x20 DUP2 DUP7 ADD DUP2 ADD MLOAD DUP6 DUP4 ADD MSTORE ADD PUSH3 0x42F JUMP JUMPDEST POP PUSH1 0x0 SWAP3 ADD SWAP2 DUP3 MSTORE POP SWAP2 SWAP1 POP JUMP JUMPDEST PUSH1 0x80 MLOAD PUSH2 0x1601 PUSH3 0x47C PUSH1 0x0 CODECOPY PUSH1 0x0 DUP2 DUP2 PUSH2 0x348 ADD MSTORE PUSH2 0x57F ADD MSTORE PUSH2 0x1601 PUSH1 0x0 RETURN INVALID PUSH1 0x80 PUSH1 0x40 MSTORE CALLVALUE DUP1 ISZERO PUSH2 0x10 JUMPI PUSH1 0x0 DUP1 REVERT JUMPDEST POP PUSH1 0x4 CALLDATASIZE LT PUSH2 0x14D JUMPI PUSH1 0x0 CALLDATALOAD PUSH1 0xE0 SHR DUP1 PUSH4 0x8456CB59 GT PUSH2 0xC3 JUMPI DUP1 PUSH4 0xB1D0B22F GT PUSH2 0x7C JUMPI DUP1 PUSH4 0xB1D0B22F EQ PUSH2 0x3A3 JUMPI DUP1 PUSH4 0xB1FF9BA1 EQ PUSH2 0x3AC JUMPI DUP1 PUSH4 0xCDAFBBB6 EQ PUSH2 0x3B4 JUMPI DUP1 PUSH4 0xDDA82B1F EQ PUSH2 0x41A JUMPI DUP1 PUSH4 0xF2FDE38B EQ PUSH2 0x43A JUMPI DUP1 PUSH4 0xFF438552 EQ PUSH2 0x44D JUMPI PUSH1 0x0 DUP1 REVERT JUMPDEST DUP1 PUSH4 0x8456CB59 EQ PUSH2 0x316 JUMPI DUP1 PUSH4 0x8DA5CB5B EQ PUSH2 0x31E JUMPI DUP1 PUSH4 0x8E848283 EQ PUSH2 0x343 JUMPI DUP1 PUSH4 0x9306D82F EQ PUSH2 0x36A JUMPI DUP1 PUSH4 0x967689DC EQ PUSH2 0x37D JUMPI DUP1 PUSH4 0xA5DB604A EQ PUSH2 0x390 JUMPI PUSH1 0x0 DUP1 REVERT JUMPDEST DUP1 PUSH4 0x4EC9EEFE GT PUSH2 0x115 JUMPI DUP1 PUSH4 0x4EC9EEFE EQ PUSH2 0x1CA JUMPI DUP1 PUSH4 0x59328401 EQ PUSH2 0x232 JUMPI DUP1 PUSH4 0x5C975ABB EQ PUSH2 0x2DF JUMPI DUP1 PUSH4 0x715018A6 EQ PUSH2 0x2FC JUMPI DUP1 PUSH4 0x76C97A62 EQ PUSH2 0x304 JUMPI DUP1 PUSH4 0x76E8E6C1 EQ PUSH2 0x30D JUMPI PUSH1 0x0 DUP1 REVERT JUMPDEST DUP1 PUSH4 0x1E7113FD EQ PUSH2 0x152 JUMPI DUP1 PUSH4 0x20C1ED1E EQ PUSH2 0x185 JUMPI DUP1 PUSH4 0x31D7A262 EQ PUSH2 0x19A JUMPI DUP1 PUSH4 0x372500AB EQ PUSH2 0x1BA JUMPI DUP1 PUSH4 0x3F4BA83A EQ PUSH2 0x1C2 JUMPI JUMPDEST PUSH1 0x0 DUP1 REVERT JUMPDEST PUSH2 0x172 PUSH2 0x160 CALLDATASIZE PUSH1 0x4 PUSH2 0x123E JUMP JUMPDEST PUSH1 0x9 PUSH1 0x20 MSTORE PUSH1 0x0 SWAP1 DUP2 MSTORE PUSH1 0x40 SWAP1 KECCAK256 SLOAD DUP2 JUMP JUMPDEST PUSH1 0x40 MLOAD SWAP1 DUP2 MSTORE PUSH1 0x20 ADD JUMPDEST PUSH1 0x40 MLOAD DUP1 SWAP2 SUB SWAP1 RETURN JUMPDEST PUSH2 0x198 PUSH2 0x193 CALLDATASIZE PUSH1 0x4 PUSH2 0x1260 JUMP JUMPDEST PUSH2 0x460 JUMP JUMPDEST STOP JUMPDEST PUSH2 0x172 PUSH2 0x1A8 CALLDATASIZE PUSH1 0x4 PUSH2 0x123E JUMP JUMPDEST PUSH1 0x4 PUSH1 0x20 MSTORE PUSH1 0x0 SWAP1 DUP2 MSTORE PUSH1 0x40 SWAP1 KECCAK256 SLOAD DUP2 JUMP JUMPDEST PUSH2 0x198 PUSH2 0x50A JUMP JUMPDEST PUSH2 0x198 PUSH2 0x688 JUMP JUMPDEST PUSH2 0x210 PUSH2 0x1D8 CALLDATASIZE PUSH1 0x4 PUSH2 0x12A0 JUMP JUMPDEST DUP1 MLOAD PUSH1 0x20 DUP2 DUP4 ADD DUP2 ADD DUP1 MLOAD PUSH1 0x2 DUP1 DUP4 MSTORE SWAP4 DUP4 ADD SWAP3 SWAP1 SWAP5 ADD SWAP2 SWAP1 SWAP2 KECCAK256 SWAP3 SWAP1 MSTORE DUP2 SLOAD PUSH1 0x1 DUP4 ADD SLOAD SWAP2 DUP4 ADD SLOAD PUSH1 0x3 SWAP1 SWAP4 ADD SLOAD SWAP1 SWAP3 SWAP1 PUSH1 0xFF AND DUP5 JUMP JUMPDEST PUSH1 0x40 DUP1 MLOAD SWAP5 DUP6 MSTORE PUSH1 0x20 DUP6 ADD SWAP4 SWAP1 SWAP4 MSTORE SWAP2 DUP4 ADD MSTORE ISZERO ISZERO PUSH1 0x60 DUP3 ADD MSTORE PUSH1 0x80 ADD PUSH2 0x17C JUMP JUMPDEST PUSH2 0x2B2 PUSH2 0x240 CALLDATASIZE PUSH1 0x4 PUSH2 0x123E JUMP JUMPDEST PUSH1 0x1 PUSH1 0x1 PUSH1 0xA0 SHL SUB AND PUSH1 0x0 DUP2 DUP2 MSTORE PUSH1 0x3 PUSH1 0x20 DUP2 DUP2 MSTORE PUSH1 0x40 DUP1 DUP5 KECCAK256 DUP2 MLOAD PUSH1 0xA0 DUP2 ADD DUP4 MSTORE DUP2 SLOAD DUP1 DUP3 MSTORE PUSH1 0x1 DUP4 ADD SLOAD DUP3 DUP7 ADD DUP2 SWAP1 MSTORE PUSH1 0x2 DUP5 ADD SLOAD DUP4 DUP7 ADD MSTORE SWAP6 DUP4 ADD SLOAD PUSH1 0x60 DUP4 ADD DUP2 SWAP1 MSTORE PUSH1 0x4 SWAP4 DUP5 ADD SLOAD PUSH1 0x80 SWAP1 SWAP4 ADD DUP4 SWAP1 MSTORE SWAP8 DUP8 MSTORE SWAP2 DUP5 MSTORE DUP3 DUP7 KECCAK256 SLOAD PUSH1 0x8 SWAP1 SWAP5 MSTORE SWAP2 SWAP1 SWAP5 KECCAK256 SLOAD SWAP4 SWAP6 SWAP3 SWAP5 SWAP1 SWAP4 SWAP1 SWAP3 JUMP JUMPDEST PUSH1 0x40 DUP1 MLOAD SWAP7 DUP8 MSTORE PUSH1 0x20 DUP8 ADD SWAP6 SWAP1 SWAP6 MSTORE SWAP4 DUP6 ADD SWAP3 SWAP1 SWAP3 MSTORE PUSH1 0x60 DUP5 ADD MSTORE PUSH1 0x80 DUP4 ADD MSTORE PUSH1 0xA0 DUP3 ADD MSTORE PUSH1 0xC0 ADD PUSH2 0x17C JUMP JUMPDEST PUSH1 0x0 SLOAD PUSH1 0x1 PUSH1 0xA0 SHL SWAP1 DIV PUSH1 0xFF AND PUSH1 0x40 MLOAD SWAP1 ISZERO ISZERO DUP2 MSTORE PUSH1 0x20 ADD PUSH2 0x17C JUMP JUMPDEST PUSH2 0x198 PUSH2 0x698 JUMP JUMPDEST PUSH2 0x172 PUSH1 0x6 SLOAD DUP2 JUMP JUMPDEST PUSH2 0x172 PUSH1 0x7 SLOAD DUP2 JUMP JUMPDEST PUSH2 0x198 PUSH2 0x6AA JUMP JUMPDEST PUSH1 0x0 SLOAD PUSH1 0x1 PUSH1 0x1 PUSH1 0xA0 SHL SUB AND JUMPDEST PUSH1 0x40 MLOAD PUSH1 0x1 PUSH1 0x1 PUSH1 0xA0 SHL SUB SWAP1 SWAP2 AND DUP2 MSTORE PUSH1 0x20 ADD PUSH2 0x17C JUMP JUMPDEST PUSH2 0x32B PUSH32 0x0 DUP2 JUMP JUMPDEST PUSH2 0x198 PUSH2 0x378 CALLDATASIZE PUSH1 0x4 PUSH2 0x139A JUMP JUMPDEST PUSH2 0x6BA JUMP JUMPDEST PUSH2 0x198 PUSH2 0x38B CALLDATASIZE PUSH1 0x4 PUSH2 0x1419 JUMP JUMPDEST PUSH2 0xA44 JUMP JUMPDEST PUSH2 0x198 PUSH2 0x39E CALLDATASIZE PUSH1 0x4 PUSH2 0x1473 JUMP JUMPDEST PUSH2 0xA97 JUMP JUMPDEST PUSH2 0x172 PUSH1 0x5 SLOAD DUP2 JUMP JUMPDEST PUSH2 0x172 PUSH1 0x1E DUP2 JUMP JUMPDEST PUSH2 0x3F2 PUSH2 0x3C2 CALLDATASIZE PUSH1 0x4 PUSH2 0x123E JUMP JUMPDEST PUSH1 0x3 PUSH1 0x20 DUP2 SWAP1 MSTORE PUSH1 0x0 SWAP2 DUP3 MSTORE PUSH1 0x40 SWAP1 SWAP2 KECCAK256 DUP1 SLOAD PUSH1 0x1 DUP3 ADD SLOAD PUSH1 0x2 DUP4 ADD SLOAD SWAP4 DUP4 ADD SLOAD PUSH1 0x4 SWAP1 SWAP4 ADD SLOAD SWAP2 SWAP4 SWAP1 SWAP3 SWAP1 SWAP2 DUP6 JUMP JUMPDEST PUSH1 0x40 DUP1 MLOAD SWAP6 DUP7 MSTORE PUSH1 0x20 DUP7 ADD SWAP5 SWAP1 SWAP5 MSTORE SWAP3 DUP5 ADD SWAP2 SWAP1 SWAP2 MSTORE PUSH1 0x60 DUP4 ADD MSTORE PUSH1 0x80 DUP3 ADD MSTORE PUSH1 0xA0 ADD PUSH2 0x17C JUMP JUMPDEST PUSH2 0x172 PUSH2 0x428 CALLDATASIZE PUSH1 0x4 PUSH2 0x123E JUMP JUMPDEST PUSH1 0x8 PUSH1 0x20 MSTORE PUSH1 0x0 SWAP1 DUP2 MSTORE PUSH1 0x40 SWAP1 KECCAK256 SLOAD DUP2 JUMP JUMPDEST PUSH2 0x198 PUSH2 0x448 CALLDATASIZE PUSH1 0x4 PUSH2 0x123E JUMP JUMPDEST PUSH2 0xB00 JUMP JUMPDEST PUSH2 0x198 PUSH2 0x45B CALLDATASIZE PUSH1 0x4 PUSH2 0x14B5 JUMP JUMPDEST PUSH2 0xB3E JUMP JUMPDEST PUSH2 0x468 PUSH2 0xB54 JUMP JUMPDEST PUSH9 0x3635C9ADC5DEA00000 DUP2 GT ISZERO PUSH2 0x4C6 JUMPI PUSH1 0x40 MLOAD PUSH3 0x461BCD PUSH1 0xE5 SHL DUP2 MSTORE PUSH1 0x20 PUSH1 0x4 DUP3 ADD MSTORE PUSH1 0x1A PUSH1 0x24 DUP3 ADD MSTORE PUSH32 0x456D657267656E63792072657761726420746F6F206C61726765000000000000 PUSH1 0x44 DUP3 ADD MSTORE PUSH1 0x64 ADD JUMPDEST PUSH1 0x40 MLOAD DUP1 SWAP2 SUB SWAP1 REVERT JUMPDEST PUSH1 0x1 PUSH1 0x1 PUSH1 0xA0 SHL SUB DUP3 AND PUSH1 0x0 SWAP1 DUP2 MSTORE PUSH1 0x4 PUSH1 0x20 MSTORE PUSH1 0x40 SWAP1 KECCAK256 SLOAD PUSH2 0x4EA SWAP1 DUP3 SWAP1 PUSH2 0x14F7 JUMP JUMPDEST PUSH1 0x1 PUSH1 0x1 PUSH1 0xA0 SHL SUB SWAP1 SWAP3 AND PUSH1 0x0 SWAP1 DUP2 MSTORE PUSH1 0x4 PUSH1 0x20 MSTORE PUSH1 0x40 SWAP1 KECCAK256 SWAP2 SWAP1 SWAP2 SSTORE POP JUMP JUMPDEST PUSH2 0x512 PUSH2 0xB81 JUMP JUMPDEST PUSH2 0x51A PUSH2 0xBAB JUMP JUMPDEST CALLER PUSH1 0x0 SWAP1 DUP2 MSTORE PUSH1 0x4 PUSH1 0x20 MSTORE PUSH1 0x40 SWAP1 KECCAK256 SLOAD DUP1 PUSH2 0x56D JUMPI PUSH1 0x40 MLOAD PUSH3 0x461BCD PUSH1 0xE5 SHL DUP2 MSTORE PUSH1 0x20 PUSH1 0x4 DUP3 ADD MSTORE PUSH1 0x13 PUSH1 0x24 DUP3 ADD MSTORE PUSH19 0x4E6F207265776172647320746F20636C61696D PUSH1 0x68 SHL PUSH1 0x44 DUP3 ADD MSTORE PUSH1 0x64 ADD PUSH2 0x4BD JUMP JUMPDEST CALLER PUSH1 0x0 DUP2 DUP2 MSTORE PUSH1 0x4 PUSH1 0x20 MSTORE PUSH1 0x40 DUP2 KECCAK256 SSTORE PUSH32 0x0 PUSH1 0x1 PUSH1 0x1 PUSH1 0xA0 SHL SUB AND SWAP1 PUSH4 0xA5FFEFE6 SWAP1 PUSH1 0x40 MLOAD PUSH1 0x1 PUSH1 0x1 PUSH1 0xE0 SHL SUB NOT PUSH1 0xE0 DUP5 SWAP1 SHL AND DUP2 MSTORE PUSH1 0x1 PUSH1 0x1 PUSH1 0xA0 SHL SUB SWAP1 SWAP2 AND PUSH1 0x4 DUP3 ADD MSTORE PUSH1 0x24 DUP2 ADD DUP5 SWAP1 MSTORE PUSH1 0x60 PUSH1 0x44 DUP3 ADD MSTORE PUSH1 0xE PUSH1 0x64 DUP3 ADD MSTORE PUSH14 0x67616D696E675F72657761726473 PUSH1 0x90 SHL PUSH1 0x84 DUP3 ADD MSTORE PUSH1 0xA4 ADD PUSH1 0x0 PUSH1 0x40 MLOAD DUP1 DUP4 SUB DUP2 PUSH1 0x0 DUP8 DUP1 EXTCODESIZE ISZERO DUP1 ISZERO PUSH2 0x61B JUMPI PUSH1 0x0 DUP1 REVERT JUMPDEST POP GAS CALL ISZERO DUP1 ISZERO PUSH2 0x62F JUMPI RETURNDATASIZE PUSH1 0x0 DUP1 RETURNDATACOPY RETURNDATASIZE PUSH1 0x0 REVERT JUMPDEST POP POP POP POP PUSH2 0x63A CALLER SWAP1 JUMP JUMPDEST PUSH1 0x1 PUSH1 0x1 PUSH1 0xA0 SHL SUB AND PUSH32 0xFC30CDDEA38E2BF4D6EA7D3F9ED3B6AD7F176419F4963BD81318067A4AEE73FE DUP3 PUSH1 0x40 MLOAD PUSH2 0x674 SWAP2 DUP2 MSTORE PUSH1 0x20 ADD SWAP1 JUMP JUMPDEST PUSH1 0x40 MLOAD DUP1 SWAP2 SUB SWAP1 LOG2 POP PUSH2 0x686 PUSH1 0x1 DUP1 SSTORE JUMP JUMPDEST JUMP JUMPDEST PUSH2 0x690 PUSH2 0xB54 JUMP JUMPDEST PUSH2 0x686 PUSH2 0xBD6 JUMP JUMPDEST PUSH2 0x6A0 PUSH2 0xB54 JUMP JUMPDEST PUSH2 0x686 PUSH1 0x0 PUSH2 0xC2B JUMP JUMPDEST PUSH2 0x6B2 PUSH2 0xB54 JUMP JUMPDEST PUSH2 0x686 PUSH2 0xC7B JUMP JUMPDEST PUSH2 0x6C2 PUSH2 0xB54 JUMP JUMPDEST PUSH2 0x6CA PUSH2 0xBAB JUMP JUMPDEST PUSH2 0x6D2 PUSH2 0xB81 JUMP JUMPDEST PUSH1 0x1 PUSH1 0x1 PUSH1 0xA0 SHL SUB DUP7 AND PUSH2 0x721 JUMPI PUSH1 0x40 MLOAD PUSH3 0x461BCD PUSH1 0xE5 SHL DUP2 MSTORE PUSH1 0x20 PUSH1 0x4 DUP3 ADD MSTORE PUSH1 0x16 PUSH1 0x24 DUP3 ADD MSTORE PUSH22 0x496E76616C696420706C617965722061646472657373 PUSH1 0x50 SHL PUSH1 0x44 DUP3 ADD MSTORE PUSH1 0x64 ADD PUSH2 0x4BD JUMP JUMPDEST PUSH1 0x2 DUP5 DUP5 PUSH1 0x40 MLOAD PUSH2 0x733 SWAP3 SWAP2 SWAP1 PUSH2 0x150A JUMP JUMPDEST SWAP1 DUP2 MSTORE PUSH1 0x40 MLOAD SWAP1 DUP2 SWAP1 SUB PUSH1 0x20 ADD SWAP1 KECCAK256 PUSH1 0x3 ADD SLOAD PUSH1 0xFF AND PUSH2 0x78C JUMPI PUSH1 0x40 MLOAD PUSH3 0x461BCD PUSH1 0xE5 SHL DUP2 MSTORE PUSH1 0x20 PUSH1 0x4 DUP3 ADD MSTORE PUSH1 0x14 PUSH1 0x24 DUP3 ADD MSTORE PUSH20 0x47616D652074797065206E6F7420616374697665 PUSH1 0x60 SHL PUSH1 0x44 DUP3 ADD MSTORE PUSH1 0x64 ADD PUSH2 0x4BD JUMP JUMPDEST PUSH1 0x1 PUSH1 0x1 PUSH1 0xA0 SHL SUB DUP7 AND PUSH1 0x0 SWAP1 DUP2 MSTORE PUSH1 0x3 PUSH1 0x20 MSTORE PUSH1 0x40 SWAP1 KECCAK256 PUSH1 0x2 ADD SLOAD PUSH2 0x7B4 SWAP1 PUSH1 0x1E SWAP1 PUSH2 0x14F7 JUMP JUMPDEST TIMESTAMP LT ISZERO PUSH2 0x803 JUMPI PUSH1 0x40 MLOAD PUSH3 0x461BCD PUSH1 0xE5 SHL DUP2 MSTORE PUSH1 0x20 PUSH1 0x4 DUP3 ADD MSTORE PUSH1 0x1A PUSH1 0x24 DUP3 ADD MSTORE PUSH32 0x546F6F206672657175656E742072657761726420636C61696D73000000000000 PUSH1 0x44 DUP3 ADD MSTORE PUSH1 0x64 ADD PUSH2 0x4BD JUMP JUMPDEST PUSH1 0x0 PUSH2 0x812 PUSH3 0x15180 TIMESTAMP PUSH2 0x151A JUMP JUMPDEST PUSH1 0x1 PUSH1 0x1 PUSH1 0xA0 SHL SUB DUP9 AND PUSH1 0x0 SWAP1 DUP2 MSTORE PUSH1 0x9 PUSH1 0x20 MSTORE PUSH1 0x40 SWAP1 KECCAK256 SLOAD SWAP1 SWAP2 POP DUP2 EQ PUSH2 0x865 JUMPI PUSH1 0x1 PUSH1 0x1 PUSH1 0xA0 SHL SUB DUP8 AND PUSH1 0x0 SWAP1 DUP2 MSTORE PUSH1 0x8 PUSH1 0x20 SWAP1 DUP2 MSTORE PUSH1 0x40 DUP1 DUP4 KECCAK256 DUP4 SWAP1 SSTORE PUSH1 0x9 SWAP1 SWAP2 MSTORE SWAP1 KECCAK256 DUP2 SWAP1 SSTORE PUSH2 0x865 DUP8 PUSH2 0xCBE JUMP JUMPDEST PUSH1 0x5 SLOAD PUSH1 0x1 PUSH1 0x1 PUSH1 0xA0 SHL SUB DUP9 AND PUSH1 0x0 SWAP1 DUP2 MSTORE PUSH1 0x8 PUSH1 0x20 MSTORE PUSH1 0x40 SWAP1 KECCAK256 SLOAD LT PUSH2 0x8CE JUMPI PUSH1 0x40 MLOAD PUSH3 0x461BCD PUSH1 0xE5 SHL DUP2 MSTORE PUSH1 0x20 PUSH1 0x4 DUP3 ADD MSTORE PUSH1 0x19 PUSH1 0x24 DUP3 ADD MSTORE PUSH32 0x4461696C79207265776172642063617020657863656564656400000000000000 PUSH1 0x44 DUP3 ADD MSTORE PUSH1 0x64 ADD PUSH2 0x4BD JUMP JUMPDEST PUSH1 0x0 PUSH2 0x914 DUP8 DUP8 DUP8 DUP1 DUP1 PUSH1 0x1F ADD PUSH1 0x20 DUP1 SWAP2 DIV MUL PUSH1 0x20 ADD PUSH1 0x40 MLOAD SWAP1 DUP2 ADD PUSH1 0x40 MSTORE DUP1 SWAP4 SWAP3 SWAP2 SWAP1 DUP2 DUP2 MSTORE PUSH1 0x20 ADD DUP4 DUP4 DUP1 DUP3 DUP5 CALLDATACOPY PUSH1 0x0 SWAP3 ADD SWAP2 SWAP1 SWAP2 MSTORE POP DUP10 SWAP3 POP DUP9 SWAP2 POP PUSH2 0xDA5 SWAP1 POP JUMP JUMPDEST SWAP1 POP PUSH2 0x920 DUP9 DUP3 PUSH2 0xEE5 JUMP JUMPDEST PUSH1 0x5 SLOAD PUSH1 0x1 PUSH1 0x1 PUSH1 0xA0 SHL SUB DUP11 AND PUSH1 0x0 SWAP1 DUP2 MSTORE PUSH1 0x8 PUSH1 0x20 MSTORE PUSH1 0x40 SWAP1 KECCAK256 SLOAD SWAP2 SWAP3 POP SWAP1 PUSH2 0x94B SWAP1 DUP4 SWAP1 PUSH2 0x14F7 JUMP JUMPDEST GT ISZERO PUSH2 0x97A JUMPI PUSH1 0x1 PUSH1 0x1 PUSH1 0xA0 SHL SUB DUP9 AND PUSH1 0x0 SWAP1 DUP2 MSTORE PUSH1 0x8 PUSH1 0x20 MSTORE PUSH1 0x40 SWAP1 KECCAK256 SLOAD PUSH1 0x5 SLOAD PUSH2 0x977 SWAP2 SWAP1 PUSH2 0x153C JUMP JUMPDEST SWAP1 POP JUMPDEST PUSH2 0x984 DUP9 DUP3 PUSH2 0xFD3 JUMP JUMPDEST PUSH1 0x1 PUSH1 0x1 PUSH1 0xA0 SHL SUB DUP9 AND PUSH1 0x0 SWAP1 DUP2 MSTORE PUSH1 0x4 PUSH1 0x20 MSTORE PUSH1 0x40 SWAP1 KECCAK256 SLOAD PUSH2 0x9A8 SWAP1 DUP3 SWAP1 PUSH2 0x14F7 JUMP JUMPDEST PUSH1 0x1 PUSH1 0x1 PUSH1 0xA0 SHL SUB DUP10 AND PUSH1 0x0 SWAP1 DUP2 MSTORE PUSH1 0x4 PUSH1 0x20 SWAP1 DUP2 MSTORE PUSH1 0x40 DUP1 DUP4 KECCAK256 SWAP4 SWAP1 SWAP4 SSTORE PUSH1 0x8 SWAP1 MSTORE KECCAK256 SLOAD PUSH2 0x9D8 SWAP1 DUP3 SWAP1 PUSH2 0x14F7 JUMP JUMPDEST PUSH1 0x1 PUSH1 0x1 PUSH1 0xA0 SHL SUB DUP10 AND PUSH1 0x0 DUP2 DUP2 MSTORE PUSH1 0x8 PUSH1 0x20 MSTORE PUSH1 0x40 SWAP1 DUP2 SWAP1 KECCAK256 SWAP3 SWAP1 SWAP3 SSTORE SWAP1 MLOAD PUSH32 0x49649141D16971A88C3CFDD73FEC34BABB1CF163CF8B804C8F537A023C6CE506 SWAP1 PUSH2 0xA29 SWAP1 DUP5 SWAP1 DUP11 SWAP1 DUP11 SWAP1 PUSH2 0x154F JUMP JUMPDEST PUSH1 0x40 MLOAD DUP1 SWAP2 SUB SWAP1 LOG2 POP POP PUSH2 0xA3C PUSH1 0x1 DUP1 SSTORE JUMP JUMPDEST POP POP POP POP POP POP JUMP JUMPDEST PUSH2 0xA4C PUSH2 0xB54 JUMP JUMPDEST PUSH2 0xA90 DUP6 DUP6 DUP1 DUP1 PUSH1 0x1F ADD PUSH1 0x20 DUP1 SWAP2 DIV MUL PUSH1 0x20 ADD PUSH1 0x40 MLOAD SWAP1 DUP2 ADD PUSH1 0x40 MSTORE DUP1 SWAP4 SWAP3 SWAP2 SWAP1 DUP2 DUP2 MSTORE PUSH1 0x20 ADD DUP4 DUP4 DUP1 DUP3 DUP5 CALLDATACOPY PUSH1 0x0 SWAP3 ADD SWAP2 SWAP1 SWAP2 MSTORE POP DUP8 SWAP3 POP DUP7 SWAP2 POP DUP6 SWAP1 POP PUSH2 0x109F JUMP JUMPDEST POP POP POP POP POP JUMP JUMPDEST PUSH2 0xA9F PUSH2 0xB54 JUMP JUMPDEST PUSH1 0x2 DUP3 DUP3 PUSH1 0x40 MLOAD PUSH2 0xAB1 SWAP3 SWAP2 SWAP1 PUSH2 0x150A JUMP JUMPDEST SWAP1 DUP2 MSTORE PUSH1 0x40 MLOAD SWAP1 DUP2 SWAP1 SUB PUSH1 0x20 ADD DUP2 KECCAK256 PUSH1 0x3 ADD SLOAD PUSH1 0xFF AND ISZERO SWAP1 PUSH1 0x2 SWAP1 PUSH2 0xAD9 SWAP1 DUP6 SWAP1 DUP6 SWAP1 PUSH2 0x150A JUMP JUMPDEST SWAP1 DUP2 MSTORE PUSH1 0x40 MLOAD SWAP1 DUP2 SWAP1 SUB PUSH1 0x20 ADD SWAP1 KECCAK256 PUSH1 0x3 ADD DUP1 SLOAD SWAP2 ISZERO ISZERO PUSH1 0xFF NOT SWAP1 SWAP3 AND SWAP2 SWAP1 SWAP2 OR SWAP1 SSTORE POP POP JUMP JUMPDEST PUSH2 0xB08 PUSH2 0xB54 JUMP JUMPDEST PUSH1 0x1 PUSH1 0x1 PUSH1 0xA0 SHL SUB DUP2 AND PUSH2 0xB32 JUMPI PUSH1 0x40 MLOAD PUSH4 0x1E4FBDF7 PUSH1 0xE0 SHL DUP2 MSTORE PUSH1 0x0 PUSH1 0x4 DUP3 ADD MSTORE PUSH1 0x24 ADD PUSH2 0x4BD JUMP JUMPDEST PUSH2 0xB3B DUP2 PUSH2 0xC2B JUMP JUMPDEST POP JUMP JUMPDEST PUSH2 0xB46 PUSH2 0xB54 JUMP JUMPDEST PUSH1 0x5 SWAP3 SWAP1 SWAP3 SSTORE PUSH1 0x6 SSTORE PUSH1 0x7 SSTORE JUMP JUMPDEST PUSH1 0x0 SLOAD PUSH1 0x1 PUSH1 0x1 PUSH1 0xA0 SHL SUB AND CALLER EQ PUSH2 0x686 JUMPI PUSH1 0x40 MLOAD PUSH4 0x118CDAA7 PUSH1 0xE0 SHL DUP2 MSTORE CALLER PUSH1 0x4 DUP3 ADD MSTORE PUSH1 0x24 ADD PUSH2 0x4BD JUMP JUMPDEST PUSH1 0x2 PUSH1 0x1 SLOAD SUB PUSH2 0xBA4 JUMPI PUSH1 0x40 MLOAD PUSH4 0x3EE5AEB5 PUSH1 0xE0 SHL DUP2 MSTORE PUSH1 0x4 ADD PUSH1 0x40 MLOAD DUP1 SWAP2 SUB SWAP1 REVERT JUMPDEST PUSH1 0x2 PUSH1 0x1 SSTORE JUMP JUMPDEST PUSH1 0x0 SLOAD PUSH1 0x1 PUSH1 0xA0 SHL SWAP1 DIV PUSH1 0xFF AND ISZERO PUSH2 0x686 JUMPI PUSH1 0x40 MLOAD PUSH4 0xD93C0665 PUSH1 0xE0 SHL DUP2 MSTORE PUSH1 0x4 ADD PUSH1 0x40 MLOAD DUP1 SWAP2 SUB SWAP1 REVERT JUMPDEST PUSH2 0xBDE PUSH2 0x11F8 JUMP JUMPDEST PUSH1 0x0 DUP1 SLOAD PUSH1 0xFF PUSH1 0xA0 SHL NOT AND SWAP1 SSTORE PUSH32 0x5DB9EE0A495BF2E6FF9C91A7834C1BA4FDD244A5E8AA4E537BD38AEAE4B073AA CALLER JUMPDEST PUSH1 0x40 MLOAD PUSH1 0x1 PUSH1 0x1 PUSH1 0xA0 SHL SUB SWAP1 SWAP2 AND DUP2 MSTORE PUSH1 0x20 ADD PUSH1 0x40 MLOAD DUP1 SWAP2 SUB SWAP1 LOG1 JUMP JUMPDEST PUSH1 0x0 DUP1 SLOAD PUSH1 0x1 PUSH1 0x1 PUSH1 0xA0 SHL SUB DUP4 DUP2 AND PUSH1 0x1 PUSH1 0x1 PUSH1 0xA0 SHL SUB NOT DUP4 AND DUP2 OR DUP5 SSTORE PUSH1 0x40 MLOAD SWAP2 SWAP1 SWAP3 AND SWAP3 DUP4 SWAP2 PUSH32 0x8BE0079C531659141344CD1FD0A4F28419497F9722A3DAAFE3B4186F6B6457E0 SWAP2 SWAP1 LOG3 POP POP JUMP JUMPDEST PUSH2 0xC83 PUSH2 0xBAB JUMP JUMPDEST PUSH1 0x0 DUP1 SLOAD PUSH1 0xFF PUSH1 0xA0 SHL NOT AND PUSH1 0x1 PUSH1 0xA0 SHL OR SWAP1 SSTORE PUSH32 0x62E78CEA01BEE320CD4E420270B5EA74000D11B0C9F74754EBDBFC544B05A258 PUSH2 0xC0E CALLER SWAP1 JUMP JUMPDEST PUSH1 0x1 PUSH1 0x1 PUSH1 0xA0 SHL SUB DUP2 AND PUSH1 0x0 SWAP1 DUP2 MSTORE PUSH1 0x3 PUSH1 0x20 MSTORE PUSH1 0x40 DUP2 KECCAK256 SWAP1 PUSH2 0xCE4 PUSH3 0x15180 TIMESTAMP PUSH2 0x151A JUMP JUMPDEST PUSH1 0x1 PUSH1 0x1 PUSH1 0xA0 SHL SUB DUP5 AND PUSH1 0x0 SWAP1 DUP2 MSTORE PUSH1 0x9 PUSH1 0x20 MSTORE PUSH1 0x40 DUP2 KECCAK256 SLOAD SWAP2 SWAP3 POP DUP2 SWAP1 SUB PUSH2 0xD13 JUMPI PUSH1 0x1 PUSH1 0x3 DUP5 ADD SSTORE PUSH2 0xD58 JUMP JUMPDEST PUSH2 0xD1E DUP2 PUSH1 0x1 PUSH2 0x14F7 JUMP JUMPDEST DUP3 SUB PUSH2 0xD3E JUMPI PUSH1 0x3 DUP4 ADD SLOAD PUSH2 0xD34 SWAP1 PUSH1 0x1 PUSH2 0x14F7 JUMP JUMPDEST PUSH1 0x3 DUP5 ADD SSTORE PUSH2 0xD58 JUMP JUMPDEST PUSH2 0xD49 DUP2 PUSH1 0x1 PUSH2 0x14F7 JUMP JUMPDEST DUP3 GT ISZERO PUSH2 0xD58 JUMPI PUSH1 0x1 PUSH1 0x3 DUP5 ADD SSTORE JUMPDEST DUP4 PUSH1 0x1 PUSH1 0x1 PUSH1 0xA0 SHL SUB AND PUSH32 0x46F6FE577ECFEFE55B0F14F0B42DDB4C22DB1FB9BADE43AA02C5EF4E5439512E DUP5 PUSH1 0x3 ADD SLOAD PUSH1 0x40 MLOAD PUSH2 0xD97 SWAP2 DUP2 MSTORE PUSH1 0x20 ADD SWAP1 JUMP JUMPDEST PUSH1 0x40 MLOAD DUP1 SWAP2 SUB SWAP1 LOG2 POP POP POP POP JUMP JUMPDEST PUSH1 0x0 DUP1 PUSH1 0x2 DUP6 PUSH1 0x40 MLOAD PUSH2 0xDB8 SWAP2 SWAP1 PUSH2 0x1585 JUMP JUMPDEST SWAP1 DUP2 MSTORE PUSH1 0x40 DUP1 MLOAD SWAP2 DUP3 SWAP1 SUB PUSH1 0x20 SWAP1 DUP2 ADD DUP4 KECCAK256 PUSH1 0x80 DUP5 ADD DUP4 MSTORE DUP1 SLOAD DUP5 MSTORE PUSH1 0x1 DUP2 ADD SLOAD SWAP2 DUP5 ADD SWAP2 SWAP1 SWAP2 MSTORE PUSH1 0x2 DUP2 ADD SLOAD SWAP2 DUP4 ADD SWAP2 SWAP1 SWAP2 MSTORE PUSH1 0x3 ADD SLOAD PUSH1 0xFF AND ISZERO ISZERO PUSH1 0x60 DUP3 ADD MSTORE SWAP1 POP PUSH1 0x0 PUSH2 0x2710 DUP8 GT PUSH2 0xE25 JUMPI PUSH2 0x2710 PUSH2 0xE16 DUP9 PUSH2 0x3E8 PUSH2 0x15B4 JUMP JUMPDEST PUSH2 0xE20 SWAP2 SWAP1 PUSH2 0x151A JUMP JUMPDEST PUSH2 0xE29 JUMP JUMPDEST PUSH2 0x3E8 JUMPDEST SWAP1 POP PUSH1 0x0 PUSH1 0x3C DUP7 LT PUSH2 0xE4B JUMPI PUSH1 0xB4 DUP7 LT PUSH2 0xE44 JUMPI PUSH1 0x64 PUSH2 0xE4E JUMP JUMPDEST PUSH1 0x96 PUSH2 0xE4E JUMP JUMPDEST PUSH1 0xC8 JUMPDEST PUSH1 0xFF AND SWAP1 POP PUSH1 0x0 DUP6 PUSH2 0xE61 JUMPI PUSH1 0x64 PUSH2 0xE64 JUMP JUMPDEST PUSH1 0x96 JUMPDEST PUSH1 0xFF AND SWAP1 POP PUSH1 0x0 DUP5 PUSH1 0x0 ADD MLOAD DUP6 PUSH1 0x20 ADD MLOAD PUSH2 0xE7F SWAP2 SWAP1 PUSH2 0x153C JUMP JUMPDEST SWAP1 POP PUSH1 0x0 PUSH2 0x3E8 PUSH2 0xE90 DUP7 DUP5 PUSH2 0x15B4 JUMP JUMPDEST PUSH2 0xE9A SWAP2 SWAP1 PUSH2 0x151A JUMP JUMPDEST DUP7 MLOAD PUSH2 0xEA6 SWAP2 SWAP1 PUSH2 0x14F7 JUMP JUMPDEST SWAP1 POP PUSH1 0x64 PUSH2 0xEB4 DUP6 DUP4 PUSH2 0x15B4 JUMP JUMPDEST PUSH2 0xEBE SWAP2 SWAP1 PUSH2 0x151A JUMP JUMPDEST SWAP1 POP PUSH1 0x64 PUSH2 0xECC DUP5 DUP4 PUSH2 0x15B4 JUMP JUMPDEST PUSH2 0xED6 SWAP2 SWAP1 PUSH2 0x151A JUMP JUMPDEST SWAP12 SWAP11 POP POP POP POP POP POP POP POP POP POP POP JUMP JUMPDEST PUSH1 0x1 PUSH1 0x1 PUSH1 0xA0 SHL SUB DUP3 AND PUSH1 0x0 SWAP1 DUP2 MSTORE PUSH1 0x3 PUSH1 0x20 DUP2 DUP2 MSTORE PUSH1 0x40 DUP1 DUP5 KECCAK256 DUP2 MLOAD PUSH1 0xA0 DUP2 ADD DUP4 MSTORE DUP2 SLOAD DUP2 MSTORE PUSH1 0x1 DUP3 ADD SLOAD SWAP4 DUP2 ADD SWAP4 SWAP1 SWAP4 MSTORE PUSH1 0x2 DUP2 ADD SLOAD SWAP2 DUP4 ADD SWAP2 SWAP1 SWAP2 MSTORE SWAP2 DUP3 ADD SLOAD PUSH1 0x60 DUP3 ADD DUP2 SWAP1 MSTORE PUSH1 0x4 SWAP1 SWAP3 ADD SLOAD PUSH1 0x80 DUP3 ADD MSTORE SWAP1 DUP4 SWAP1 ISZERO PUSH2 0xF7F JUMPI PUSH1 0x0 DUP3 PUSH1 0x60 ADD MLOAD PUSH1 0x32 PUSH2 0xF55 SWAP2 SWAP1 PUSH2 0x15B4 JUMP JUMPDEST PUSH1 0x6 SLOAD PUSH2 0xF62 SWAP2 SWAP1 PUSH2 0x14F7 JUMP JUMPDEST SWAP1 POP PUSH2 0x3E8 PUSH2 0xF71 DUP3 DUP5 PUSH2 0x15B4 JUMP JUMPDEST PUSH2 0xF7B SWAP2 SWAP1 PUSH2 0x151A JUMP JUMPDEST SWAP2 POP POP JUMPDEST PUSH1 0x1 DUP3 PUSH1 0x80 ADD MLOAD GT ISZERO PUSH2 0xFC9 JUMPI PUSH1 0x0 PUSH1 0x7 SLOAD DUP4 PUSH1 0x80 ADD MLOAD PUSH2 0xFA0 SWAP2 SWAP1 PUSH2 0x15B4 JUMP JUMPDEST PUSH2 0xFAC SWAP1 PUSH2 0x3E8 PUSH2 0x14F7 JUMP JUMPDEST SWAP1 POP PUSH2 0x3E8 PUSH2 0xFBB DUP3 DUP5 PUSH2 0x15B4 JUMP JUMPDEST PUSH2 0xFC5 SWAP2 SWAP1 PUSH2 0x151A JUMP JUMPDEST SWAP2 POP POP JUMPDEST SWAP2 POP POP JUMPDEST SWAP3 SWAP2 POP POP JUMP JUMPDEST PUSH1 0x1 PUSH1 0x1 PUSH1 0xA0 SHL SUB DUP3 AND PUSH1 0x0 SWAP1 DUP2 MSTORE PUSH1 0x3 PUSH1 0x20 MSTORE PUSH1 0x40 SWAP1 KECCAK256 DUP1 SLOAD PUSH2 0xFF8 SWAP1 DUP4 SWAP1 PUSH2 0x14F7 JUMP JUMPDEST DUP2 SSTORE PUSH1 0x1 DUP1 DUP3 ADD SLOAD PUSH2 0x1009 SWAP2 PUSH2 0x14F7 JUMP JUMPDEST PUSH1 0x1 DUP3 ADD SSTORE TIMESTAMP PUSH1 0x2 DUP3 ADD SSTORE DUP1 SLOAD PUSH1 0x0 SWAP1 PUSH2 0x102E SWAP1 PUSH10 0x21E19E0C9BAB2400000 SWAP1 PUSH2 0x151A JUMP JUMPDEST PUSH1 0xA DUP4 PUSH1 0x1 ADD SLOAD PUSH2 0x103F SWAP2 SWAP1 PUSH2 0x151A JUMP JUMPDEST PUSH2 0x1049 SWAP2 SWAP1 PUSH2 0x14F7 JUMP JUMPDEST SWAP1 POP DUP2 PUSH1 0x4 ADD SLOAD DUP2 GT ISZERO PUSH2 0x1099 JUMPI PUSH1 0x4 DUP3 ADD DUP2 SWAP1 SSTORE PUSH1 0x40 MLOAD DUP2 DUP2 MSTORE PUSH1 0x1 PUSH1 0x1 PUSH1 0xA0 SHL SUB DUP6 AND SWAP1 PUSH32 0xCBADCE0717DAB60D3DC2A5A3641C2CAC2FB6487782B4A9726EA97D47CA9913FF SWAP1 PUSH1 0x20 ADD PUSH2 0xD97 JUMP JUMPDEST POP POP POP POP JUMP JUMPDEST DUP3 DUP3 LT ISZERO PUSH2 0x10E6 JUMPI PUSH1 0x40 MLOAD PUSH3 0x461BCD PUSH1 0xE5 SHL DUP2 MSTORE PUSH1 0x20 PUSH1 0x4 DUP3 ADD MSTORE PUSH1 0x14 PUSH1 0x24 DUP3 ADD MSTORE PUSH20 0x496E76616C6964207265776172642072616E6765 PUSH1 0x60 SHL PUSH1 0x44 DUP3 ADD MSTORE PUSH1 0x64 ADD PUSH2 0x4BD JUMP JUMPDEST PUSH2 0x1F4 DUP2 LT ISZERO DUP1 ISZERO PUSH2 0x10FA JUMPI POP PUSH2 0x7D0 DUP2 GT ISZERO JUMPDEST PUSH2 0x113B JUMPI PUSH1 0x40 MLOAD PUSH3 0x461BCD PUSH1 0xE5 SHL DUP2 MSTORE PUSH1 0x20 PUSH1 0x4 DUP3 ADD MSTORE PUSH1 0x12 PUSH1 0x24 DUP3 ADD MSTORE PUSH18 0x24B73B30B634B21036BAB63A34B83634B2B9 PUSH1 0x71 SHL PUSH1 0x44 DUP3 ADD MSTORE PUSH1 0x64 ADD PUSH2 0x4BD JUMP JUMPDEST PUSH1 0x40 MLOAD DUP1 PUSH1 0x80 ADD PUSH1 0x40 MSTORE DUP1 DUP5 DUP2 MSTORE PUSH1 0x20 ADD DUP4 DUP2 MSTORE PUSH1 0x20 ADD DUP3 DUP2 MSTORE PUSH1 0x20 ADD PUSH1 0x1 ISZERO ISZERO DUP2 MSTORE POP PUSH1 0x2 DUP6 PUSH1 0x40 MLOAD PUSH2 0x116F SWAP2 SWAP1 PUSH2 0x1585 JUMP JUMPDEST SWAP1 DUP2 MSTORE PUSH1 0x40 DUP1 MLOAD PUSH1 0x20 SWAP3 DUP2 SWAP1 SUB DUP4 ADD DUP2 KECCAK256 DUP5 MLOAD DUP2 SSTORE SWAP3 DUP5 ADD MLOAD PUSH1 0x1 DUP5 ADD SSTORE SWAP1 DUP4 ADD MLOAD PUSH1 0x2 DUP4 ADD SSTORE PUSH1 0x60 SWAP1 SWAP3 ADD MLOAD PUSH1 0x3 SWAP1 SWAP2 ADD DUP1 SLOAD PUSH1 0xFF NOT AND SWAP2 ISZERO ISZERO SWAP2 SWAP1 SWAP2 OR SWAP1 SSTORE PUSH2 0x11BB SWAP1 DUP6 SWAP1 PUSH2 0x1585 JUMP JUMPDEST PUSH1 0x40 DUP1 MLOAD SWAP2 DUP3 SWAP1 SUB DUP3 KECCAK256 DUP6 DUP4 MSTORE PUSH1 0x20 DUP4 ADD DUP6 SWAP1 MSTORE SWAP2 PUSH32 0xEF0AD5BDDCE44BB76C0B6BA0E07C96A23CC6ECD53F7C10E6CD3B18EC18958F6E SWAP2 ADD PUSH2 0xD97 JUMP JUMPDEST PUSH1 0x0 SLOAD PUSH1 0x1 PUSH1 0xA0 SHL SWAP1 DIV PUSH1 0xFF AND PUSH2 0x686 JUMPI PUSH1 0x40 MLOAD PUSH4 0x8DFC202B PUSH1 0xE0 SHL DUP2 MSTORE PUSH1 0x4 ADD PUSH1 0x40 MLOAD DUP1 SWAP2 SUB SWAP1 REVERT JUMPDEST DUP1 CALLDATALOAD PUSH1 0x1 PUSH1 0x1 PUSH1 0xA0 SHL SUB DUP2 AND DUP2 EQ PUSH2 0x1239 JUMPI PUSH1 0x0 DUP1 REVERT JUMPDEST SWAP2 SWAP1 POP JUMP JUMPDEST PUSH1 0x0 PUSH1 0x20 DUP3 DUP5 SUB SLT ISZERO PUSH2 0x1250 JUMPI PUSH1 0x0 DUP1 REVERT JUMPDEST PUSH2 0x1259 DUP3 PUSH2 0x1222 JUMP JUMPDEST SWAP4 SWAP3 POP POP POP JUMP JUMPDEST PUSH1 0x0 DUP1 PUSH1 0x40 DUP4 DUP6 SUB SLT ISZERO PUSH2 0x1273 JUMPI PUSH1 0x0 DUP1 REVERT JUMPDEST PUSH2 0x127C DUP4 PUSH2 0x1222 JUMP JUMPDEST SWAP5 PUSH1 0x20 SWAP4 SWAP1 SWAP4 ADD CALLDATALOAD SWAP4 POP POP POP JUMP JUMPDEST PUSH4 0x4E487B71 PUSH1 0xE0 SHL PUSH1 0x0 MSTORE PUSH1 0x41 PUSH1 0x4 MSTORE PUSH1 0x24 PUSH1 0x0 REVERT JUMPDEST PUSH1 0x0 PUSH1 0x20 DUP3 DUP5 SUB SLT ISZERO PUSH2 0x12B2 JUMPI PUSH1 0x0 DUP1 REVERT JUMPDEST DUP2 CALLDATALOAD PUSH8 0xFFFFFFFFFFFFFFFF DUP1 DUP3 GT ISZERO PUSH2 0x12CA JUMPI PUSH1 0x0 DUP1 REVERT JUMPDEST DUP2 DUP5 ADD SWAP2 POP DUP5 PUSH1 0x1F DUP4 ADD SLT PUSH2 0x12DE JUMPI PUSH1 0x0 DUP1 REVERT JUMPDEST DUP2 CALLDATALOAD DUP2 DUP2 GT ISZERO PUSH2 0x12F0 JUMPI PUSH2 0x12F0 PUSH2 0x128A JUMP JUMPDEST PUSH1 0x40 MLOAD PUSH1 0x1F DUP3 ADD PUSH1 0x1F NOT SWAP1 DUP2 AND PUSH1 0x3F ADD AND DUP2 ADD SWAP1 DUP4 DUP3 GT DUP2 DUP4 LT OR ISZERO PUSH2 0x1318 JUMPI PUSH2 0x1318 PUSH2 0x128A JUMP JUMPDEST DUP2 PUSH1 0x40 MSTORE DUP3 DUP2 MSTORE DUP8 PUSH1 0x20 DUP5 DUP8 ADD ADD GT ISZERO PUSH2 0x1331 JUMPI PUSH1 0x0 DUP1 REVERT JUMPDEST DUP3 PUSH1 0x20 DUP7 ADD PUSH1 0x20 DUP4 ADD CALLDATACOPY PUSH1 0x0 SWAP3 DUP2 ADD PUSH1 0x20 ADD SWAP3 SWAP1 SWAP3 MSTORE POP SWAP6 SWAP5 POP POP POP POP POP JUMP JUMPDEST PUSH1 0x0 DUP1 DUP4 PUSH1 0x1F DUP5 ADD SLT PUSH2 0x1363 JUMPI PUSH1 0x0 DUP1 REVERT JUMPDEST POP DUP2 CALLDATALOAD PUSH8 0xFFFFFFFFFFFFFFFF DUP2 GT ISZERO PUSH2 0x137B JUMPI PUSH1 0x0 DUP1 REVERT JUMPDEST PUSH1 0x20 DUP4 ADD SWAP2 POP DUP4 PUSH1 0x20 DUP3 DUP6 ADD ADD GT ISZERO PUSH2 0x1393 JUMPI PUSH1 0x0 DUP1 REVERT JUMPDEST SWAP3 POP SWAP3 SWAP1 POP JUMP JUMPDEST PUSH1 0x0 DUP1 PUSH1 0x0 DUP1 PUSH1 0x0 DUP1 PUSH1 0xA0 DUP8 DUP10 SUB SLT ISZERO PUSH2 0x13B3 JUMPI PUSH1 0x0 DUP1 REVERT JUMPDEST PUSH2 0x13BC DUP8 PUSH2 0x1222 JUMP JUMPDEST SWAP6 POP PUSH1 0x20 DUP8 ADD CALLDATALOAD SWAP5 POP PUSH1 0x40 DUP8 ADD CALLDATALOAD PUSH8 0xFFFFFFFFFFFFFFFF DUP2 GT ISZERO PUSH2 0x13DF JUMPI PUSH1 0x0 DUP1 REVERT JUMPDEST PUSH2 0x13EB DUP10 DUP3 DUP11 ADD PUSH2 0x1351 JUMP JUMPDEST SWAP1 SWAP6 POP SWAP4 POP POP PUSH1 0x60 DUP8 ADD CALLDATALOAD SWAP2 POP PUSH1 0x80 DUP8 ADD CALLDATALOAD DUP1 ISZERO ISZERO DUP2 EQ PUSH2 0x140B JUMPI PUSH1 0x0 DUP1 REVERT JUMPDEST DUP1 SWAP2 POP POP SWAP3 SWAP6 POP SWAP3 SWAP6 POP SWAP3 SWAP6 JUMP JUMPDEST PUSH1 0x0 DUP1 PUSH1 0x0 DUP1 PUSH1 0x0 PUSH1 0x80 DUP7 DUP9 SUB SLT ISZERO PUSH2 0x1431 JUMPI PUSH1 0x0 DUP1 REVERT JUMPDEST DUP6 CALLDATALOAD PUSH8 0xFFFFFFFFFFFFFFFF DUP2 GT ISZERO PUSH2 0x1448 JUMPI PUSH1 0x0 DUP1 REVERT JUMPDEST PUSH2 0x1454 DUP9 DUP3 DUP10 ADD PUSH2 0x1351 JUMP JUMPDEST SWAP1 SWAP10 SWAP1 SWAP9 POP PUSH1 0x20 DUP9 ADD CALLDATALOAD SWAP8 PUSH1 0x40 DUP2 ADD CALLDATALOAD SWAP8 POP PUSH1 0x60 ADD CALLDATALOAD SWAP6 POP SWAP4 POP POP POP POP JUMP JUMPDEST PUSH1 0x0 DUP1 PUSH1 0x20 DUP4 DUP6 SUB SLT ISZERO PUSH2 0x1486 JUMPI PUSH1 0x0 DUP1 REVERT JUMPDEST DUP3 CALLDATALOAD PUSH8 0xFFFFFFFFFFFFFFFF DUP2 GT ISZERO PUSH2 0x149D JUMPI PUSH1 0x0 DUP1 REVERT JUMPDEST PUSH2 0x14A9 DUP6 DUP3 DUP7 ADD PUSH2 0x1351 JUMP JUMPDEST SWAP1 SWAP7 SWAP1 SWAP6 POP SWAP4 POP POP POP POP JUMP JUMPDEST PUSH1 0x0 DUP1 PUSH1 0x0 PUSH1 0x60 DUP5 DUP7 SUB SLT ISZERO PUSH2 0x14CA JUMPI PUSH1 0x0 DUP1 REVERT JUMPDEST POP POP DUP2 CALLDATALOAD SWAP4 PUSH1 0x20 DUP4 ADD CALLDATALOAD SWAP4 POP PUSH1 0x40 SWAP1 SWAP3 ADD CALLDATALOAD SWAP2 SWAP1 POP JUMP JUMPDEST PUSH4 0x4E487B71 PUSH1 0xE0 SHL PUSH1 0x0 MSTORE PUSH1 0x11 PUSH1 0x4 MSTORE PUSH1 0x24 PUSH1 0x0 REVERT JUMPDEST DUP1 DUP3 ADD DUP1 DUP3 GT ISZERO PUSH2 0xFCD JUMPI PUSH2 0xFCD PUSH2 0x14E1 JUMP JUMPDEST DUP2 DUP4 DUP3 CALLDATACOPY PUSH1 0x0 SWAP2 ADD SWAP1 DUP2 MSTORE SWAP2 SWAP1 POP JUMP JUMPDEST PUSH1 0x0 DUP3 PUSH2 0x1537 JUMPI PUSH4 0x4E487B71 PUSH1 0xE0 SHL PUSH1 0x0 MSTORE PUSH1 0x12 PUSH1 0x4 MSTORE PUSH1 0x24 PUSH1 0x0 REVERT JUMPDEST POP DIV SWAP1 JUMP JUMPDEST DUP2 DUP2 SUB DUP2 DUP2 GT ISZERO PUSH2 0xFCD JUMPI PUSH2 0xFCD PUSH2 0x14E1 JUMP JUMPDEST DUP4 DUP2 MSTORE PUSH1 0x40 PUSH1 0x20 DUP3 ADD MSTORE DUP2 PUSH1 0x40 DUP3 ADD MSTORE DUP2 DUP4 PUSH1 0x60 DUP4 ADD CALLDATACOPY PUSH1 0x0 DUP2 DUP4 ADD PUSH1 0x60 SWAP1 DUP2 ADD SWAP2 SWAP1 SWAP2 MSTORE PUSH1 0x1F SWAP1 SWAP3 ADD PUSH1 0x1F NOT AND ADD ADD SWAP3 SWAP2 POP POP JUMP JUMPDEST PUSH1 0x0 DUP3 MLOAD PUSH1 0x0 JUMPDEST DUP2 DUP2 LT ISZERO PUSH2 0x15A6 JUMPI PUSH1 0x20 DUP2 DUP7 ADD DUP2 ADD MLOAD DUP6 DUP4 ADD MSTORE ADD PUSH2 0x158C JUMP JUMPDEST POP PUSH1 0x0 SWAP3 ADD SWAP2 DUP3 MSTORE POP SWAP2 SWAP1 POP JUMP JUMPDEST DUP1 DUP3 MUL DUP2 ISZERO DUP3 DUP3 DIV DUP5 EQ OR PUSH2 0xFCD JUMPI PUSH2 0xFCD PUSH2 0x14E1 JUMP INVALID LOG2 PUSH5 0x6970667358 0x22 SLT KECCAK256 DUP10 0xCC 0x29 INVALID 0xD2 DUP15 0x2F SWAP7 PUSH8 0xBC0E47CB4AD05D9 0xF6 0x1E SAR XOR 0x49 0xB0 SWAP3 EXTCODESIZE 0x22 SWAP4 0xF 0xD SELFBALANCE 0xB4 PUSH0 PUSH5 0x736F6C6343 STOP ADDMOD EQ STOP CALLER "},"methodIdentifiers":{"MIN_REWARD_INTERVAL()":"b1ff9ba1","claimRewards()":"372500ab","dailyRewardCap()":"b1d0b22f","dailyRewardsClaimed(address)":"dda82b1f","distributeReward(address,uint256,string,uint256,bool)":"9306d82f","emergencyReward(address,uint256)":"20c1ed1e","gameRewards(string)":"4ec9eefe","getPlayerInfo(address)":"59328401","lastRewardDate(address)":"1e7113fd","levelMultiplier()":"76e8e6c1","owner()":"8da5cb5b","pause()":"8456cb59","paused()":"5c975abb","pendingRewards(address)":"31d7a262","playerStats(address)":"cdafbbb6","renounceOwnership()":"715018a6","setGameReward(string,uint256,uint256,uint256)":"967689dc","streakMultiplier()":"76c97a62","sudoToken()":"8e848283","toggleGameReward(string)":"a5db604a","transferOwnership(address)":"f2fde38b","unpause()":"3f4ba83a","updatePlatformSettings(uint256,uint256,uint256)":"ff438552"}}}}}