{
  "_format": "hh-sol-artifact-1",
  "contractName": "GameRewards",
  "sourceName": "contracts/GameRewards.sol",
  "abi": [
    {
      "inputs": [
        {
          "internalType": "address",
          "name": "_sudoToken",
          "type": "address"
        }
      ],
      "stateMutability": "nonpayable",
      "type": "constructor"
    },
    {
      "inputs": [],
      "name": "EnforcedPause",
      "type": "error"
    },
    {
      "inputs": [],
      "name": "ExpectedPause",
      "type": "error"
    },
    {
      "inputs": [
        {
          "internalType": "address",
          "name": "owner",
          "type": "address"
        }
      ],
      "name": "OwnableInvalidOwner",
      "type": "error"
    },
    {
      "inputs": [
        {
          "internalType": "address",
          "name": "account",
          "type": "address"
        }
      ],
      "name": "OwnableUnauthorizedAccount",
      "type": "error"
    },
    {
      "inputs": [],
      "name": "ReentrancyGuardReentrantCall",
      "type": "error"
    },
    {
      "anonymous": false,
      "inputs": [
        {
          "indexed": true,
          "internalType": "string",
          "name": "gameType",
          "type": "string"
        },
        {
          "indexed": false,
          "internalType": "uint256",
          "name": "minReward",
          "type": "uint256"
        },
        {
          "indexed": false,
          "internalType": "uint256",
          "name": "maxReward",
          "type": "uint256"
        }
      ],
      "name": "GameRewardConfigured",
      "type": "event"
    },
    {
      "anonymous": false,
      "inputs": [
        {
          "indexed": true,
          "internalType": "address",
          "name": "previousOwner",
          "type": "address"
        },
        {
          "indexed": true,
          "internalType": "address",
          "name": "newOwner",
          "type": "address"
        }
      ],
      "name": "OwnershipTransferred",
      "type": "event"
    },
    {
      "anonymous": false,
      "inputs": [
        {
          "indexed": false,
          "internalType": "address",
          "name": "account",
          "type": "address"
        }
      ],
      "name": "Paused",
      "type": "event"
    },
    {
      "anonymous": false,
      "inputs": [
        {
          "indexed": true,
          "internalType": "address",
          "name": "player",
          "type": "address"
        },
        {
          "indexed": false,
          "internalType": "uint256",
          "name": "newLevel",
          "type": "uint256"
        }
      ],
      "name": "PlayerLevelUp",
      "type": "event"
    },
    {
      "anonymous": false,
      "inputs": [
        {
          "indexed": true,
          "internalType": "address",
          "name": "player",
          "type": "address"
        },
        {
          "indexed": false,
          "internalType": "uint256",
          "name": "amount",
          "type": "uint256"
        },
        {
          "indexed": false,
          "internalType": "string",
          "name": "gameType",
          "type": "string"
        }
      ],
      "name": "RewardDistributed",
      "type": "event"
    },
    {
      "anonymous": false,
      "inputs": [
        {
          "indexed": true,
          "internalType": "address",
          "name": "player",
          "type": "address"
        },
        {
          "indexed": false,
          "internalType": "uint256",
          "name": "amount",
          "type": "uint256"
        }
      ],
      "name": "RewardsClaimed",
      "type": "event"
    },
    {
      "anonymous": false,
      "inputs": [
        {
          "indexed": true,
          "internalType": "address",
          "name": "player",
          "type": "address"
        },
        {
          "indexed": false,
          "internalType": "uint256",
          "name": "streak",
          "type": "uint256"
        }
      ],
      "name": "StreakUpdated",
      "type": "event"
    },
    {
      "anonymous": false,
      "inputs": [
        {
          "indexed": false,
          "internalType": "address",
          "name": "account",
          "type": "address"
        }
      ],
      "name": "Unpaused",
      "type": "event"
    },
    {
      "inputs": [],
      "name": "MIN_REWARD_INTERVAL",
      "outputs": [
        {
          "internalType": "uint256",
          "name": "",
          "type": "uint256"
        }
      ],
      "stateMutability": "view",
      "type": "function"
    },
    {
      "inputs": [],
      "name": "claimRewards",
      "outputs": [],
      "stateMutability": "nonpayable",
      "type": "function"
    },
    {
      "inputs": [],
      "name": "dailyRewardCap",
      "outputs": [
        {
          "internalType": "uint256",
          "name": "",
          "type": "uint256"
        }
      ],
      "stateMutability": "view",
      "type": "function"
    },
    {
      "inputs": [
        {
          "internalType": "address",
          "name": "",
          "type": "address"
        }
      ],
      "name": "dailyRewardsClaimed",
      "outputs": [
        {
          "internalType": "uint256",
          "name": "",
          "type": "uint256"
        }
      ],
      "stateMutability": "view",
      "type": "function"
    },
    {
      "inputs": [
        {
          "internalType": "address",
          "name": "player",
          "type": "address"
        },
        {
          "internalType": "uint256",
          "name": "baseScore",
          "type": "uint256"
        },
        {
          "internalType": "string",
          "name": "gameType",
          "type": "string"
        },
        {
          "internalType": "uint256",
          "name": "timeSpent",
          "type": "uint256"
        },
        {
          "internalType": "bool",
          "name": "perfectScore",
          "type": "bool"
        }
      ],
      "name": "distributeReward",
      "outputs": [],
      "stateMutability": "nonpayable",
      "type": "function"
    },
    {
      "inputs": [
        {
          "internalType": "address",
          "name": "player",
          "type": "address"
        },
        {
          "internalType": "uint256",
          "name": "amount",
          "type": "uint256"
        }
      ],
      "name": "emergencyReward",
      "outputs": [],
      "stateMutability": "nonpayable",
      "type": "function"
    },
    {
      "inputs": [
        {
          "internalType": "string",
          "name": "",
          "type": "string"
        }
      ],
      "name": "gameRewards",
      "outputs": [
        {
          "internalType": "uint256",
          "name": "minReward",
          "type": "uint256"
        },
        {
          "internalType": "uint256",
          "name": "maxReward",
          "type": "uint256"
        },
        {
          "internalType": "uint256",
          "name": "multiplier",
          "type": "uint256"
        },
        {
          "internalType": "bool",
          "name": "isActive",
          "type": "bool"
        }
      ],
      "stateMutability": "view",
      "type": "function"
    },
    {
      "inputs": [
        {
          "internalType": "address",
          "name": "player",
          "type": "address"
        }
      ],
      "name": "getPlayerInfo",
      "outputs": [
        {
          "internalType": "uint256",
          "name": "totalEarned",
          "type": "uint256"
        },
        {
          "internalType": "uint256",
          "name": "gamesPlayed",
          "type": "uint256"
        },
        {
          "internalType": "uint256",
          "name": "currentLevel",
          "type": "uint256"
        },
        {
          "internalType": "uint256",
          "name": "currentStreak",
          "type": "uint256"
        },
        {
          "internalType": "uint256",
          "name": "pendingReward",
          "type": "uint256"
        },
        {
          "internalType": "uint256",
          "name": "dailyClaimed",
          "type": "uint256"
        }
      ],
      "stateMutability": "view",
      "type": "function"
    },
    {
      "inputs": [
        {
          "internalType": "address",
          "name": "",
          "type": "address"
        }
      ],
      "name": "lastRewardDate",
      "outputs": [
        {
          "internalType": "uint256",
          "name": "",
          "type": "uint256"
        }
      ],
      "stateMutability": "view",
      "type": "function"
    },
    {
      "inputs": [],
      "name": "levelMultiplier",
      "outputs": [
        {
          "internalType": "uint256",
          "name": "",
          "type": "uint256"
        }
      ],
      "stateMutability": "view",
      "type": "function"
    },
    {
      "inputs": [],
      "name": "owner",
      "outputs": [
        {
          "internalType": "address",
          "name": "",
          "type": "address"
        }
      ],
      "stateMutability": "view",
      "type": "function"
    },
    {
      "inputs": [],
      "name": "pause",
      "outputs": [],
      "stateMutability": "nonpayable",
      "type": "function"
    },
    {
      "inputs": [],
      "name": "paused",
      "outputs": [
        {
          "internalType": "bool",
          "name": "",
          "type": "bool"
        }
      ],
      "stateMutability": "view",
      "type": "function"
    },
    {
      "inputs": [
        {
          "internalType": "address",
          "name": "",
          "type": "address"
        }
      ],
      "name": "pendingRewards",
      "outputs": [
        {
          "internalType": "uint256",
          "name": "",
          "type": "uint256"
        }
      ],
      "stateMutability": "view",
      "type": "function"
    },
    {
      "inputs": [
        {
          "internalType": "address",
          "name": "",
          "type": "address"
        }
      ],
      "name": "playerStats",
      "outputs": [
        {
          "internalType": "uint256",
          "name": "totalEarned",
          "type": "uint256"
        },
        {
          "internalType": "uint256",
          "name": "gamesPlayed",
          "type": "uint256"
        },
        {
          "internalType": "uint256",
          "name": "lastRewardTime",
          "type": "uint256"
        },
        {
          "internalType": "uint256",
          "name": "streak",
          "type": "uint256"
        },
        {
          "internalType": "uint256",
          "name": "level",
          "type": "uint256"
        }
      ],
      "stateMutability": "view",
      "type": "function"
    },
    {
      "inputs": [],
      "name": "renounceOwnership",
      "outputs": [],
      "stateMutability": "nonpayable",
      "type": "function"
    },
    {
      "inputs": [
        {
          "internalType": "string",
          "name": "gameType",
          "type": "string"
        },
        {
          "internalType": "uint256",
          "name": "minReward",
          "type": "uint256"
        },
        {
          "internalType": "uint256",
          "name": "maxReward",
          "type": "uint256"
        },
        {
          "internalType": "uint256",
          "name": "multiplier",
          "type": "uint256"
        }
      ],
      "name": "setGameReward",
      "outputs": [],
      "stateMutability": "nonpayable",
      "type": "function"
    },
    {
      "inputs": [],
      "name": "streakMultiplier",
      "outputs": [
        {
          "internalType": "uint256",
          "name": "",
          "type": "uint256"
        }
      ],
      "stateMutability": "view",
      "type": "function"
    },
    {
      "inputs": [],
      "name": "sudoToken",
      "outputs": [
        {
          "internalType": "contract SudoToken",
          "name": "",
          "type": "address"
        }
      ],
      "stateMutability": "view",
      "type": "function"
    },
    {
      "inputs": [
        {
          "internalType": "string",
          "name": "gameType",
          "type": "string"
        }
      ],
      "name": "toggleGameReward",
      "outputs": [],
      "stateMutability": "nonpayable",
      "type": "function"
    },
    {
      "inputs": [
        {
          "internalType": "address",
          "name": "newOwner",
          "type": "address"
        }
      ],
      "name": "transferOwnership",
      "outputs": [],
      "stateMutability": "nonpayable",
      "type": "function"
    },
    {
      "inputs": [],
      "name": "unpause",
      "outputs": [],
      "stateMutability": "nonpayable",
      "type": "function"
    },
    {
      "inputs": [
        {
          "internalType": "uint256",
          "name": "_dailyRewardCap",
          "type": "uint256"
        },
        {
          "internalType": "uint256",
          "name": "_streakMultiplier",
          "type": "uint256"
        },
        {
          "internalType": "uint256",
          "name": "_levelMultiplier",
          "type": "uint256"
        }
      ],
      "name": "updatePlatformSettings",
      "outputs": [],
      "stateMutability": "nonpayable",
      "type": "function"
    }
  ],
  "bytecode": "0x60a060405269021e19e0c9bab24000006005556104b060065560326007553480156200002a57600080fd5b5060405162001a7d38038062001a7d8339810160408190526200004d91620003f6565b33806200007557604051631e4fbdf760e01b8152600060048201526024015b60405180910390fd5b620000808162000232565b50600180556001600160a01b03811660805260408051808201909152600e81526d70617373776f72642d637261636b60901b6020820152620000d9906802b5e3af16b1880000680ad78ebc5ac62000006103e862000282565b60408051808201909152600c81526b3732ba3bb7b93596b9b1b0b760a11b60208201526200011e9068015af1d78b58c40000680821ab0d44149800006103e862000282565b60408051808201909152600a8152691cdc5b0b5a5b9a9958dd60b21b6020820152620001619068056bc75e2d63100000681b1ae4d6e2ef5000006103e862000282565b60408051808201909152600a815269736f6369616c2d656e6760b01b6020820152620001a490680410d586a20a4c0000681043561a88293000006103e862000282565b60408051808201909152600c81526b63727970746f2d627265616b60a01b6020820152620001e990680ad78ebc5ac6200000683635c9adc5dea000006103e862000282565b6040805180820190915260088152677a65726f2d64617960c01b60208201526200022b90681b1ae4d6e2ef50000069010f0cf064dd592000006103e862000282565b5062000459565b600080546001600160a01b038381166001600160a01b0319831681178455604051919092169283917f8be0079c531659141344cd1fd0a4f28419497f9722a3daafe3b4186f6b6457e09190a35050565b82821015620002d45760405162461bcd60e51b815260206004820152601460248201527f496e76616c6964207265776172642072616e676500000000000000000000000060448201526064016200006c565b6101f48110158015620002e957506107d08111155b6200032c5760405162461bcd60e51b815260206004820152601260248201527124b73b30b634b21036bab63a34b83634b2b960711b60448201526064016200006c565b60405180608001604052808481526020018381526020018281526020016001151581525060028560405162000362919062000428565b9081526040805160209281900383018120845181559284015160018401559083015160028301556060909201516003909101805460ff1916911515919091179055620003b090859062000428565b6040805191829003822085835260208301859052917fef0ad5bddce44bb76c0b6ba0e07c96a23cc6ecd53f7c10e6cd3b18ec18958f6e910160405180910390a250505050565b6000602082840312156200040957600080fd5b81516001600160a01b03811681146200042157600080fd5b9392505050565b6000825160005b818110156200044b57602081860181015185830152016200042f565b506000920191825250919050565b6080516116016200047c60003960008181610348015261057f01526116016000f3fe608060405234801561001057600080fd5b506004361061014d5760003560e01c80638456cb59116100c3578063b1d0b22f1161007c578063b1d0b22f146103a3578063b1ff9ba1146103ac578063cdafbbb6146103b4578063dda82b1f1461041a578063f2fde38b1461043a578063ff4385521461044d57600080fd5b80638456cb59146103165780638da5cb5b1461031e5780638e848283146103435780639306d82f1461036a578063967689dc1461037d578063a5db604a1461039057600080fd5b80634ec9eefe116101155780634ec9eefe146101ca57806359328401146102325780635c975abb146102df578063715018a6146102fc57806376c97a621461030457806376e8e6c11461030d57600080fd5b80631e7113fd1461015257806320c1ed1e1461018557806331d7a2621461019a578063372500ab146101ba5780633f4ba83a146101c2575b600080fd5b61017261016036600461123e565b60096020526000908152604090205481565b6040519081526020015b60405180910390f35b610198610193366004611260565b610460565b005b6101726101a836600461123e565b60046020526000908152604090205481565b61019861050a565b610198610688565b6102106101d83660046112a0565b805160208183018101805160028083529383019290940191909120929052815460018301549183015460039093015490929060ff1684565b604080519485526020850193909352918301521515606082015260800161017c565b6102b261024036600461123e565b6001600160a01b03166000818152600360208181526040808420815160a081018352815480825260018301548286018190526002840154838601529583015460608301819052600493840154608090930183905297875291845282862054600890945291909420549395929490939092565b604080519687526020870195909552938501929092526060840152608083015260a082015260c00161017c565b600054600160a01b900460ff16604051901515815260200161017c565b610198610698565b61017260065481565b61017260075481565b6101986106aa565b6000546001600160a01b03165b6040516001600160a01b03909116815260200161017c565b61032b7f000000000000000000000000000000000000000000000000000000000000000081565b61019861037836600461139a565b6106ba565b61019861038b366004611419565b610a44565b61019861039e366004611473565b610a97565b61017260055481565b610172601e81565b6103f26103c236600461123e565b60036020819052600091825260409091208054600182015460028301549383015460049093015491939092909185565b604080519586526020860194909452928401919091526060830152608082015260a00161017c565b61017261042836600461123e565b60086020526000908152604090205481565b61019861044836600461123e565b610b00565b61019861045b3660046114b5565b610b3e565b610468610b54565b683635c9adc5dea000008111156104c65760405162461bcd60e51b815260206004820152601a60248201527f456d657267656e63792072657761726420746f6f206c6172676500000000000060448201526064015b60405180910390fd5b6001600160a01b0382166000908152600460205260409020546104ea9082906114f7565b6001600160a01b0390921660009081526004602052604090209190915550565b610512610b81565b61051a610bab565b336000908152600460205260409020548061056d5760405162461bcd60e51b81526020600482015260136024820152724e6f207265776172647320746f20636c61696d60681b60448201526064016104bd565b336000818152600460205260408120557f00000000000000000000000000000000000000000000000000000000000000006001600160a01b03169063a5ffefe6906040516001600160e01b031960e084901b1681526001600160a01b0390911660048201526024810184905260606044820152600e60648201526d67616d696e675f7265776172647360901b608482015260a401600060405180830381600087803b15801561061b57600080fd5b505af115801561062f573d6000803e3d6000fd5b5050505061063a3390565b6001600160a01b03167ffc30cddea38e2bf4d6ea7d3f9ed3b6ad7f176419f4963bd81318067a4aee73fe8260405161067491815260200190565b60405180910390a25061068660018055565b565b610690610b54565b610686610bd6565b6106a0610b54565b6106866000610c2b565b6106b2610b54565b610686610c7b565b6106c2610b54565b6106ca610bab565b6106d2610b81565b6001600160a01b0386166107215760405162461bcd60e51b8152602060048201526016602482015275496e76616c696420706c61796572206164647265737360501b60448201526064016104bd565b6002848460405161073392919061150a565b9081526040519081900360200190206003015460ff1661078c5760405162461bcd60e51b815260206004820152601460248201527347616d652074797065206e6f742061637469766560601b60448201526064016104bd565b6001600160a01b0386166000908152600360205260409020600201546107b490601e906114f7565b4210156108035760405162461bcd60e51b815260206004820152601a60248201527f546f6f206672657175656e742072657761726420636c61696d7300000000000060448201526064016104bd565b6000610812620151804261151a565b6001600160a01b0388166000908152600960205260409020549091508114610865576001600160a01b03871660009081526008602090815260408083208390556009909152902081905561086587610cbe565b6005546001600160a01b038816600090815260086020526040902054106108ce5760405162461bcd60e51b815260206004820152601960248201527f4461696c7920726577617264206361702065786365656465640000000000000060448201526064016104bd565b60006109148787878080601f016020809104026020016040519081016040528093929190818152602001838380828437600092019190915250899250889150610da59050565b90506109208882610ee5565b6005546001600160a01b038a166000908152600860205260409020549192509061094b9083906114f7565b111561097a576001600160a01b038816600090815260086020526040902054600554610977919061153c565b90505b6109848882610fd3565b6001600160a01b0388166000908152600460205260409020546109a89082906114f7565b6001600160a01b0389166000908152600460209081526040808320939093556008905220546109d89082906114f7565b6001600160a01b038916600081815260086020526040908190209290925590517f49649141d16971a88c3cfdd73fec34babb1cf163cf8b804c8f537a023c6ce50690610a299084908a908a9061154f565b60405180910390a25050610a3c60018055565b505050505050565b610a4c610b54565b610a9085858080601f01602080910402602001604051908101604052809392919081815260200183838082843760009201919091525087925086915085905061109f565b5050505050565b610a9f610b54565b60028282604051610ab192919061150a565b9081526040519081900360200181206003015460ff161590600290610ad9908590859061150a565b908152604051908190036020019020600301805491151560ff199092169190911790555050565b610b08610b54565b6001600160a01b038116610b3257604051631e4fbdf760e01b8152600060048201526024016104bd565b610b3b81610c2b565b50565b610b46610b54565b600592909255600655600755565b6000546001600160a01b031633146106865760405163118cdaa760e01b81523360048201526024016104bd565b600260015403610ba457604051633ee5aeb560e01b815260040160405180910390fd5b6002600155565b600054600160a01b900460ff16156106865760405163d93c066560e01b815260040160405180910390fd5b610bde6111f8565b6000805460ff60a01b191690557f5db9ee0a495bf2e6ff9c91a7834c1ba4fdd244a5e8aa4e537bd38aeae4b073aa335b6040516001600160a01b03909116815260200160405180910390a1565b600080546001600160a01b038381166001600160a01b0319831681178455604051919092169283917f8be0079c531659141344cd1fd0a4f28419497f9722a3daafe3b4186f6b6457e09190a35050565b610c83610bab565b6000805460ff60a01b1916600160a01b1790557f62e78cea01bee320cd4e420270b5ea74000d11b0c9f74754ebdbfc544b05a258610c0e3390565b6001600160a01b038116600090815260036020526040812090610ce4620151804261151a565b6001600160a01b038416600090815260096020526040812054919250819003610d135760016003840155610d58565b610d1e8160016114f7565b8203610d3e576003830154610d349060016114f7565b6003840155610d58565b610d498160016114f7565b821115610d5857600160038401555b836001600160a01b03167f46f6fe577ecfefe55b0f14f0b42ddb4c22db1fb9bade43aa02c5ef4e5439512e8460030154604051610d9791815260200190565b60405180910390a250505050565b600080600285604051610db89190611585565b908152604080519182900360209081018320608084018352805484526001810154918401919091526002810154918301919091526003015460ff1615156060820152905060006127108711610e2557612710610e16886103e86115b4565b610e20919061151a565b610e29565b6103e85b90506000603c8610610e4b5760b48610610e44576064610e4e565b6096610e4e565b60c85b60ff169050600085610e61576064610e64565b60965b60ff169050600084600001518560200151610e7f919061153c565b905060006103e8610e9086846115b4565b610e9a919061151a565b8651610ea691906114f7565b90506064610eb485836115b4565b610ebe919061151a565b90506064610ecc84836115b4565b610ed6919061151a565b9b9a5050505050505050505050565b6001600160a01b0382166000908152600360208181526040808420815160a081018352815481526001820154938101939093526002810154918301919091529182015460608201819052600490920154608082015290839015610f7f57600082606001516032610f5591906115b4565b600654610f6291906114f7565b90506103e8610f7182846115b4565b610f7b919061151a565b9150505b600182608001511115610fc95760006007548360800151610fa091906115b4565b610fac906103e86114f7565b90506103e8610fbb82846115b4565b610fc5919061151a565b9150505b9150505b92915050565b6001600160a01b03821660009081526003602052604090208054610ff89083906114f7565b8155600180820154611009916114f7565b6001820155426002820155805460009061102e9069021e19e0c9bab24000009061151a565b600a836001015461103f919061151a565b61104991906114f7565b9050816004015481111561109957600482018190556040518181526001600160a01b038516907fcbadce0717dab60d3dc2a5a3641c2cac2fb6487782b4a9726ea97d47ca9913ff90602001610d97565b50505050565b828210156110e65760405162461bcd60e51b8152602060048201526014602482015273496e76616c6964207265776172642072616e676560601b60448201526064016104bd565b6101f481101580156110fa57506107d08111155b61113b5760405162461bcd60e51b815260206004820152601260248201527124b73b30b634b21036bab63a34b83634b2b960711b60448201526064016104bd565b60405180608001604052808481526020018381526020018281526020016001151581525060028560405161116f9190611585565b9081526040805160209281900383018120845181559284015160018401559083015160028301556060909201516003909101805460ff19169115159190911790556111bb908590611585565b6040805191829003822085835260208301859052917fef0ad5bddce44bb76c0b6ba0e07c96a23cc6ecd53f7c10e6cd3b18ec18958f6e9101610d97565b600054600160a01b900460ff1661068657604051638dfc202b60e01b815260040160405180910390fd5b80356001600160a01b038116811461123957600080fd5b919050565b60006020828403121561125057600080fd5b61125982611222565b9392505050565b6000806040838503121561127357600080fd5b61127c83611222565b946020939093013593505050565b634e487b7160e01b600052604160045260246000fd5b6000602082840312156112b257600080fd5b813567ffffffffffffffff808211156112ca57600080fd5b818401915084601f8301126112de57600080fd5b8135818111156112f0576112f061128a565b604051601f8201601f19908116603f011681019083821181831017156113185761131861128a565b8160405282815287602084870101111561133157600080fd5b826020860160208301376000928101602001929092525095945050505050565b60008083601f84011261136357600080fd5b50813567ffffffffffffffff81111561137b57600080fd5b60208301915083602082850101111561139357600080fd5b9250929050565b60008060008060008060a087890312156113b357600080fd5b6113bc87611222565b955060208701359450604087013567ffffffffffffffff8111156113df57600080fd5b6113eb89828a01611351565b909550935050606087013591506080870135801515811461140b57600080fd5b809150509295509295509295565b60008060008060006080868803121561143157600080fd5b853567ffffffffffffffff81111561144857600080fd5b61145488828901611351565b9099909850602088013597604081013597506060013595509350505050565b6000806020838503121561148657600080fd5b823567ffffffffffffffff81111561149d57600080fd5b6114a985828601611351565b90969095509350505050565b6000806000606084860312156114ca57600080fd5b505081359360208301359350604090920135919050565b634e487b7160e01b600052601160045260246000fd5b80820180821115610fcd57610fcd6114e1565b8183823760009101908152919050565b60008261153757634e487b7160e01b600052601260045260246000fd5b500490565b81810381811115610fcd57610fcd6114e1565b83815260406020820152816040820152818360608301376000818301606090810191909152601f909201601f1916010192915050565b6000825160005b818110156115a6576020818601810151858301520161158c565b506000920191825250919050565b8082028115828204841417610fcd57610fcd6114e156fea264697066735822122089cc29fed28e2f96670bc0e47cb4ad05d9f61e1d1849b0923b22930f0d47b45f64736f6c63430008140033",
  "linkReferences": {},
  "deployedLinkReferences": {}
}