{
  "_format": "hh-sol-artifact-1",
  "contractName": "StakingPool",
  "sourceName": "contracts/StakingPool.sol",
  "abi": [
    {
      "inputs": [
        {
          "internalType": "address",
          "name": "_sudoToken",
          "type": "address"
        }
      ],
      "stateMutability": "nonpayable",
      "type": "constructor"
    },
    {
      "inputs": [],
      "name": "EnforcedPause",
      "type": "error"
    },
    {
      "inputs": [],
      "name": "ExpectedPause",
      "type": "error"
    },
    {
      "inputs": [
        {
          "internalType": "address",
          "name": "owner",
          "type": "address"
        }
      ],
      "name": "OwnableInvalidOwner",
      "type": "error"
    },
    {
      "inputs": [
        {
          "internalType": "address",
          "name": "account",
          "type": "address"
        }
      ],
      "name": "OwnableUnauthorizedAccount",
      "type": "error"
    },
    {
      "inputs": [],
      "name": "ReentrancyGuardReentrantCall",
      "type": "error"
    },
    {
      "anonymous": false,
      "inputs": [
        {
          "indexed": false,
          "internalType": "uint256",
          "name": "oldAPY",
          "type": "uint256"
        },
        {
          "indexed": false,
          "internalType": "uint256",
          "name": "newAPY",
          "type": "uint256"
        }
      ],
      "name": "APYUpdated",
      "type": "event"
    },
    {
      "anonymous": false,
      "inputs": [
        {
          "indexed": true,
          "internalType": "address",
          "name": "user",
          "type": "address"
        },
        {
          "indexed": false,
          "internalType": "uint256",
          "name": "amount",
          "type": "uint256"
        },
        {
          "indexed": false,
          "internalType": "uint256",
          "name": "fee",
          "type": "uint256"
        }
      ],
      "name": "EmergencyUnstake",
      "type": "event"
    },
    {
      "anonymous": false,
      "inputs": [
        {
          "indexed": true,
          "internalType": "address",
          "name": "previousOwner",
          "type": "address"
        },
        {
          "indexed": true,
          "internalType": "address",
          "name": "newOwner",
          "type": "address"
        }
      ],
      "name": "OwnershipTransferred",
      "type": "event"
    },
    {
      "anonymous": false,
      "inputs": [
        {
          "indexed": false,
          "internalType": "address",
          "name": "account",
          "type": "address"
        }
      ],
      "name": "Paused",
      "type": "event"
    },
    {
      "anonymous": false,
      "inputs": [
        {
          "indexed": true,
          "internalType": "address",
          "name": "user",
          "type": "address"
        },
        {
          "indexed": false,
          "internalType": "uint256",
          "name": "amount",
          "type": "uint256"
        }
      ],
      "name": "RewardsClaimed",
      "type": "event"
    },
    {
      "anonymous": false,
      "inputs": [
        {
          "indexed": true,
          "internalType": "address",
          "name": "user",
          "type": "address"
        },
        {
          "indexed": false,
          "internalType": "uint256",
          "name": "amount",
          "type": "uint256"
        },
        {
          "indexed": false,
          "internalType": "uint256",
          "name": "lockPeriod",
          "type": "uint256"
        },
        {
          "indexed": false,
          "internalType": "uint256",
          "name": "apy",
          "type": "uint256"
        }
      ],
      "name": "Staked",
      "type": "event"
    },
    {
      "anonymous": false,
      "inputs": [
        {
          "indexed": false,
          "internalType": "uint256",
          "name": "threshold",
          "type": "uint256"
        },
        {
          "indexed": false,
          "internalType": "uint256",
          "name": "bonus",
          "type": "uint256"
        }
      ],
      "name": "TierAdded",
      "type": "event"
    },
    {
      "anonymous": false,
      "inputs": [
        {
          "indexed": false,
          "internalType": "address",
          "name": "account",
          "type": "address"
        }
      ],
      "name": "Unpaused",
      "type": "event"
    },
    {
      "anonymous": false,
      "inputs": [
        {
          "indexed": true,
          "internalType": "address",
          "name": "user",
          "type": "address"
        },
        {
          "indexed": false,
          "internalType": "uint256",
          "name": "positionId",
          "type": "uint256"
        },
        {
          "indexed": false,
          "internalType": "uint256",
          "name": "amount",
          "type": "uint256"
        }
      ],
      "name": "Unstaked",
      "type": "event"
    },
    {
      "inputs": [
        {
          "internalType": "uint256",
          "name": "threshold",
          "type": "uint256"
        },
        {
          "internalType": "uint256",
          "name": "bonus",
          "type": "uint256"
        }
      ],
      "name": "addStakingTier",
      "outputs": [],
      "stateMutability": "nonpayable",
      "type": "function"
    },
    {
      "inputs": [],
      "name": "claimRewards",
      "outputs": [],
      "stateMutability": "nonpayable",
      "type": "function"
    },
    {
      "inputs": [],
      "name": "currentAPY",
      "outputs": [
        {
          "internalType": "uint256",
          "name": "",
          "type": "uint256"
        }
      ],
      "stateMutability": "view",
      "type": "function"
    },
    {
      "inputs": [
        {
          "internalType": "uint256",
          "name": "positionId",
          "type": "uint256"
        }
      ],
      "name": "emergencyUnstake",
      "outputs": [],
      "stateMutability": "nonpayable",
      "type": "function"
    },
    {
      "inputs": [],
      "name": "emergencyUnstakeEnabled",
      "outputs": [
        {
          "internalType": "bool",
          "name": "",
          "type": "bool"
        }
      ],
      "stateMutability": "view",
      "type": "function"
    },
    {
      "inputs": [],
      "name": "emergencyUnstakeFee",
      "outputs": [
        {
          "internalType": "uint256",
          "name": "",
          "type": "uint256"
        }
      ],
      "stateMutability": "view",
      "type": "function"
    },
    {
      "inputs": [],
      "name": "getPoolStats",
      "outputs": [
        {
          "internalType": "uint256",
          "name": "_totalStaked",
          "type": "uint256"
        },
        {
          "internalType": "uint256",
          "name": "_totalRewardsPaid",
          "type": "uint256"
        },
        {
          "internalType": "uint256",
          "name": "_totalStakers",
          "type": "uint256"
        },
        {
          "internalType": "uint256",
          "name": "_currentAPY",
          "type": "uint256"
        }
      ],
      "stateMutability": "view",
      "type": "function"
    },
    {
      "inputs": [
        {
          "internalType": "address",
          "name": "user",
          "type": "address"
        }
      ],
      "name": "getUserInfo",
      "outputs": [
        {
          "internalType": "uint256",
          "name": "totalStakedAmount",
          "type": "uint256"
        },
        {
          "internalType": "uint256",
          "name": "totalPendingRewards",
          "type": "uint256"
        },
        {
          "internalType": "uint256",
          "name": "activePositions",
          "type": "uint256"
        }
      ],
      "stateMutability": "view",
      "type": "function"
    },
    {
      "inputs": [
        {
          "internalType": "address",
          "name": "user",
          "type": "address"
        }
      ],
      "name": "getUserPositions",
      "outputs": [
        {
          "internalType": "uint256[]",
          "name": "amounts",
          "type": "uint256[]"
        },
        {
          "internalType": "uint256[]",
          "name": "startTimes",
          "type": "uint256[]"
        },
        {
          "internalType": "uint256[]",
          "name": "lockPeriods",
          "type": "uint256[]"
        },
        {
          "internalType": "uint256[]",
          "name": "apys",
          "type": "uint256[]"
        },
        {
          "internalType": "bool[]",
          "name": "isActive",
          "type": "bool[]"
        }
      ],
      "stateMutability": "view",
      "type": "function"
    },
    {
      "inputs": [
        {
          "internalType": "address",
          "name": "",
          "type": "address"
        }
      ],
      "name": "hasStaked",
      "outputs": [
        {
          "internalType": "bool",
          "name": "",
          "type": "bool"
        }
      ],
      "stateMutability": "view",
      "type": "function"
    },
    {
      "inputs": [],
      "name": "maxLockPeriod",
      "outputs": [
        {
          "internalType": "uint256",
          "name": "",
          "type": "uint256"
        }
      ],
      "stateMutability": "view",
      "type": "function"
    },
    {
      "inputs": [],
      "name": "maxStakeAmount",
      "outputs": [
        {
          "internalType": "uint256",
          "name": "",
          "type": "uint256"
        }
      ],
      "stateMutability": "view",
      "type": "function"
    },
    {
      "inputs": [],
      "name": "minLockPeriod",
      "outputs": [
        {
          "internalType": "uint256",
          "name": "",
          "type": "uint256"
        }
      ],
      "stateMutability": "view",
      "type": "function"
    },
    {
      "inputs": [],
      "name": "minStakeAmount",
      "outputs": [
        {
          "internalType": "uint256",
          "name": "",
          "type": "uint256"
        }
      ],
      "stateMutability": "view",
      "type": "function"
    },
    {
      "inputs": [],
      "name": "owner",
      "outputs": [
        {
          "internalType": "address",
          "name": "",
          "type": "address"
        }
      ],
      "stateMutability": "view",
      "type": "function"
    },
    {
      "inputs": [],
      "name": "pause",
      "outputs": [],
      "stateMutability": "nonpayable",
      "type": "function"
    },
    {
      "inputs": [],
      "name": "paused",
      "outputs": [
        {
          "internalType": "bool",
          "name": "",
          "type": "bool"
        }
      ],
      "stateMutability": "view",
      "type": "function"
    },
    {
      "inputs": [
        {
          "internalType": "address",
          "name": "",
          "type": "address"
        }
      ],
      "name": "pendingRewards",
      "outputs": [
        {
          "internalType": "uint256",
          "name": "",
          "type": "uint256"
        }
      ],
      "stateMutability": "view",
      "type": "function"
    },
    {
      "inputs": [],
      "name": "renounceOwnership",
      "outputs": [],
      "stateMutability": "nonpayable",
      "type": "function"
    },
    {
      "inputs": [
        {
          "internalType": "uint256",
          "name": "amount",
          "type": "uint256"
        },
        {
          "internalType": "uint256",
          "name": "lockPeriod",
          "type": "uint256"
        }
      ],
      "name": "stake",
      "outputs": [],
      "stateMutability": "nonpayable",
      "type": "function"
    },
    {
      "inputs": [
        {
          "internalType": "uint256",
          "name": "",
          "type": "uint256"
        }
      ],
      "name": "stakingTiers",
      "outputs": [
        {
          "internalType": "uint256",
          "name": "threshold",
          "type": "uint256"
        },
        {
          "internalType": "uint256",
          "name": "bonus",
          "type": "uint256"
        }
      ],
      "stateMutability": "view",
      "type": "function"
    },
    {
      "inputs": [],
      "name": "sudoToken",
      "outputs": [
        {
          "internalType": "contract SudoToken",
          "name": "",
          "type": "address"
        }
      ],
      "stateMutability": "view",
      "type": "function"
    },
    {
      "inputs": [],
      "name": "toggleEmergencyUnstake",
      "outputs": [],
      "stateMutability": "nonpayable",
      "type": "function"
    },
    {
      "inputs": [],
      "name": "totalRewardsPaid",
      "outputs": [
        {
          "internalType": "uint256",
          "name": "",
          "type": "uint256"
        }
      ],
      "stateMutability": "view",
      "type": "function"
    },
    {
      "inputs": [],
      "name": "totalStaked",
      "outputs": [
        {
          "internalType": "uint256",
          "name": "",
          "type": "uint256"
        }
      ],
      "stateMutability": "view",
      "type": "function"
    },
    {
      "inputs": [],
      "name": "totalStakers",
      "outputs": [
        {
          "internalType": "uint256",
          "name": "",
          "type": "uint256"
        }
      ],
      "stateMutability": "view",
      "type": "function"
    },
    {
      "inputs": [
        {
          "internalType": "address",
          "name": "newOwner",
          "type": "address"
        }
      ],
      "name": "transferOwnership",
      "outputs": [],
      "stateMutability": "nonpayable",
      "type": "function"
    },
    {
      "inputs": [],
      "name": "unpause",
      "outputs": [],
      "stateMutability": "nonpayable",
      "type": "function"
    },
    {
      "inputs": [
        {
          "internalType": "uint256",
          "name": "positionId",
          "type": "uint256"
        }
      ],
      "name": "unstake",
      "outputs": [],
      "stateMutability": "nonpayable",
      "type": "function"
    },
    {
      "inputs": [
        {
          "internalType": "uint256",
          "name": "newAPY",
          "type": "uint256"
        }
      ],
      "name": "updateAPY",
      "outputs": [],
      "stateMutability": "nonpayable",
      "type": "function"
    },
    {
      "inputs": [
        {
          "internalType": "uint256",
          "name": "fee",
          "type": "uint256"
        }
      ],
      "name": "updateEmergencyUnstakeFee",
      "outputs": [],
      "stateMutability": "nonpayable",
      "type": "function"
    },
    {
      "inputs": [
        {
          "internalType": "uint256",
          "name": "_minLockPeriod",
          "type": "uint256"
        },
        {
          "internalType": "uint256",
          "name": "_maxLockPeriod",
          "type": "uint256"
        }
      ],
      "name": "updateLockPeriods",
      "outputs": [],
      "stateMutability": "nonpayable",
      "type": "function"
    },
    {
      "inputs": [
        {
          "internalType": "uint256",
          "name": "_minStakeAmount",
          "type": "uint256"
        },
        {
          "internalType": "uint256",
          "name": "_maxStakeAmount",
          "type": "uint256"
        }
      ],
      "name": "updateStakeAmounts",
      "outputs": [],
      "stateMutability": "nonpayable",
      "type": "function"
    },
    {
      "inputs": [
        {
          "internalType": "address",
          "name": "",
          "type": "address"
        },
        {
          "internalType": "uint256",
          "name": "",
          "type": "uint256"
        }
      ],
      "name": "userPositions",
      "outputs": [
        {
          "internalType": "uint256",
          "name": "amount",
          "type": "uint256"
        },
        {
          "internalType": "uint256",
          "name": "startTime",
          "type": "uint256"
        },
        {
          "internalType": "uint256",
          "name": "lastRewardTime",
          "type": "uint256"
        },
        {
          "internalType": "uint256",
          "name": "lockPeriod",
          "type": "uint256"
        },
        {
          "internalType": "uint256",
          "name": "apy",
          "type": "uint256"
        },
        {
          "internalType": "bool",
          "name": "isActive",
          "type": "bool"
        }
      ],
      "stateMutability": "view",
      "type": "function"
    }
  ],
  "bytecode": "0x60a0604052610622600855678ac7230489e8000060095569d3c21bcecceda1000000600a5562093a80600b556301e13380600c55600e805460ff191690556103e8600f553480156200005057600080fd5b50604051620020b2380380620020b283398101604081905262000073916200023a565b33806200009a57604051631e4fbdf760e01b81526000600482015260240160405180910390fd5b620000a581620001ea565b5060018080556001600160a01b0390911660805260408051808201825268056bc75e2d63100000815260646020808301918252600d805480870182556000828152945160029182027fd7b6990105719101dabeb77144f2a3385c8033acd3af97e9423a695e81ad1eb58181019290925594517fd7b6990105719101dabeb77144f2a3385c8033acd3af97e9423a695e81ad1eb69586015586518088018852683635c9adc5dea00000815260c88186019081528454808b01865585895291519184028084019290925551908601558651808801885269021e19e0c9bab2400000815261012c8186019081528454808b0186558589529151918402808401929092555190860155865180880190975269152d02c7e14af680000087526101f4938701938452825497880183559190945293519490920292830193909355519101556200026c565b600080546001600160a01b038381166001600160a01b0319831681178455604051919092169283917f8be0079c531659141344cd1fd0a4f28419497f9722a3daafe3b4186f6b6457e09190a35050565b6000602082840312156200024d57600080fd5b81516001600160a01b03811681146200026557600080fd5b9392505050565b608051611e0e620002a4600039600081816104100152818161066b01528181610d9201528181610f0001526114030152611e0e6000f3fe608060405234801561001057600080fd5b50600436106102065760003560e01c806373ae54b51161011a5780638e848283116100ad578063d50267ee1161007c578063d50267ee1461048a578063f0419a91146104b2578063f1887684146104bb578063f2fde38b146104c4578063fae728cd146104d757600080fd5b80638e8482831461040b5780639a79d32b14610432578063bbb851881461043b578063c93c8f341461046757600080fd5b8063817b1cd2116100e9578063817b1cd2146103cc5780638456cb59146103d557806386989038146103dd5780638da5cb5b146103e657600080fd5b806373ae54b51461039f57806374958e35146103a85780637b0472f0146103b15780637bda7f63146103c457600080fd5b80634b1d29b41161019d5780635d80ca321161016c5780635d80ca321461030b5780635e1b4d991461031457806360c7bc3a146103565780636386c1c714610369578063715018a61461039757600080fd5b80634b1d29b4146102ca578063515c01b7146102d357806354be19df146102e65780635c975abb146102f957600080fd5b80632e17de78116101d95780632e17de781461027957806331d7a2621461028c578063372500ab146102ba5780633f4ba83a146102c257600080fd5b8063012ce5011461020b5780630d6b6da014610220578063111a9802146102425780632a6bc2dd14610255575b600080fd5b61021e610219366004611b79565b6104ea565b005b600e5461022d9060ff1681565b60405190151581526020015b60405180910390f35b61021e610250366004611b92565b610756565b610268610263366004611bd0565b61087c565b604051610239959493929190611c26565b61021e610287366004611b79565b610bf4565b6102ac61029a366004611bd0565b60036020526000908152604090205481565b604051908152602001610239565b61021e610e79565b61021e611009565b6102ac600c5481565b61021e6102e1366004611b92565b611019565b61021e6102f4366004611b79565b611079565b600054600160a01b900460ff1661022d565b6102ac600a5481565b610327610322366004611cbb565b6110c7565b6040805196875260208701959095529385019290925260608401526080830152151560a082015260c001610239565b61021e610364366004611b92565b61111e565b61037c610377366004611bd0565b61117e565b60408051938452602084019290925290820152606001610239565b61021e6112ef565b6102ac600b5481565b6102ac60055481565b61021e6103bf366004611b92565b611301565b61021e6115e9565b6102ac60045481565b61021e611605565b6102ac60065481565b6000546001600160a01b03165b6040516001600160a01b039091168152602001610239565b6103f37f000000000000000000000000000000000000000000000000000000000000000081565b6102ac60085481565b600454600554600654600854604080519485526020850193909352918301526060820152608001610239565b61022d610475366004611bd0565b60076020526000908152604090205460ff1681565b61049d610498366004611b79565b611615565b60408051928352602083019190915201610239565b6102ac600f5481565b6102ac60095481565b61021e6104d2366004611bd0565b611643565b61021e6104e5366004611b79565b61167e565b6104f2611716565b600e5460ff166105495760405162461bcd60e51b815260206004820152601d60248201527f456d657267656e637920756e7374616b65206e6f7420656e61626c656400000060448201526064015b60405180910390fd5b33600090815260026020526040902054811061059d5760405162461bcd60e51b8152602060048201526013602482015272125b9d985b1a59081c1bdcda5d1a5bdb881251606a1b6044820152606401610540565b3360009081526002602052604081208054839081106105be576105be611ce5565b60009182526020909120600690910201600581015490915060ff1661061b5760405162461bcd60e51b8152602060048201526013602482015272506f736974696f6e206e6f742061637469766560681b6044820152606401610540565b8054600f54600090612710906106319084611d11565b61063b9190611d28565b905060006106498284611d4a565b60058501805460ff19169055600454909150610666908490611d4a565b6004557f00000000000000000000000000000000000000000000000000000000000000006001600160a01b031663a9059cbb336040516001600160e01b031960e084901b1681526001600160a01b039091166004820152602481018490526044016020604051808303816000875af11580156106e6573d6000803e3d6000fd5b505050506040513d601f19601f8201168201806040525081019061070a9190611d5d565b50604080518281526020810184905233917f4c363bde70ba6f3710164df779019cbdf717067dd1c615ccc164601c05168a36910160405180910390a25050505061075360018055565b50565b61075e611740565b60008211801561076e5750600081115b801561077c57506103e88111155b6107c85760405162461bcd60e51b815260206004820152601760248201527f496e76616c6964207469657220706172616d65746572730000000000000000006044820152606401610540565b6040805180820182528381526020808201848152600d805460018101825560009190915292517fd7b6990105719101dabeb77144f2a3385c8033acd3af97e9423a695e81ad1eb5600290940293840155517fd7b6990105719101dabeb77144f2a3385c8033acd3af97e9423a695e81ad1eb69092019190915581518481529081018390527fcfc4d8961c232632c6b09bddf66bc413cb73448057d761d8e9131102f8fb3f9991015b60405180910390a15050565b6060806060806060600060026000886001600160a01b03166001600160a01b03168152602001908152602001600020805480602002602001604051908101604052809291908181526020016000905b828210156109385760008481526020908190206040805160c08101825260068602909201805483526001808201548486015260028201549284019290925260038101546060840152600481015460808401526005015460ff16151560a083015290835290920191016108cb565b505082519293508291505067ffffffffffffffff81111561095b5761095b611d7f565b604051908082528060200260200182016040528015610984578160200160208202803683370190505b5096508067ffffffffffffffff8111156109a0576109a0611d7f565b6040519080825280602002602001820160405280156109c9578160200160208202803683370190505b5095508067ffffffffffffffff8111156109e5576109e5611d7f565b604051908082528060200260200182016040528015610a0e578160200160208202803683370190505b5094508067ffffffffffffffff811115610a2a57610a2a611d7f565b604051908082528060200260200182016040528015610a53578160200160208202803683370190505b5093508067ffffffffffffffff811115610a6f57610a6f611d7f565b604051908082528060200260200182016040528015610a98578160200160208202803683370190505b50925060005b81811015610be857828181518110610ab857610ab8611ce5565b602002602001015160000151888281518110610ad657610ad6611ce5565b602002602001018181525050828181518110610af457610af4611ce5565b602002602001015160200151878281518110610b1257610b12611ce5565b602002602001018181525050828181518110610b3057610b30611ce5565b602002602001015160600151868281518110610b4e57610b4e611ce5565b602002602001018181525050828181518110610b6c57610b6c611ce5565b602002602001015160800151858281518110610b8a57610b8a611ce5565b602002602001018181525050828181518110610ba857610ba8611ce5565b602002602001015160a00151848281518110610bc657610bc6611ce5565b9115156020928302919091019091015280610be081611d95565b915050610a9e565b50505091939590929450565b610bfc611716565b336000908152600260205260409020548110610c505760405162461bcd60e51b8152602060048201526013602482015272125b9d985b1a59081c1bdcda5d1a5bdb881251606a1b6044820152606401610540565b336000908152600260205260408120805483908110610c7157610c71611ce5565b60009182526020909120600690910201600581015490915060ff16610cce5760405162461bcd60e51b8152602060048201526013602482015272506f736974696f6e206e6f742061637469766560681b6044820152606401610540565b80600301548160010154610ce29190611dae565b421015610d315760405162461bcd60e51b815260206004820152601760248201527f4c6f636b20706572696f64206e6f7420657870697265640000000000000000006044820152606401610540565b80546000610d3f338561176d565b90508015610d735733600090815260036020526040902054610d62908290611dae565b336000908152600360205260409020555b60058301805460ff19169055600454610d8d908390611d4a565b6004557f00000000000000000000000000000000000000000000000000000000000000006001600160a01b031663a9059cbb336040516001600160e01b031960e084901b1681526001600160a01b039091166004820152602481018590526044016020604051808303816000875af1158015610e0d573d6000803e3d6000fd5b505050506040513d601f19601f82011682018060405250810190610e319190611d5d565b50604080518581526020810184905233917f7fc4727e062e336010f2c282598ef5f14facb3de68cf8195c2f23e1454b2b74e910160405180910390a250505061075360018055565b610e81611716565b610e8a33611868565b3360009081526003602052604090205480610edd5760405162461bcd60e51b81526020600482015260136024820152724e6f207265776172647320746f20636c61696d60681b6044820152606401610540565b33600090815260036020526040812055600554610efb908290611dae565b6005557f00000000000000000000000000000000000000000000000000000000000000006001600160a01b031663a5ffefe6336040516001600160e01b031960e084901b1681526001600160a01b0390911660048201526024810184905260606044820152600f60648201526e7374616b696e675f7265776172647360881b608482015260a401600060405180830381600087803b158015610f9c57600080fd5b505af1158015610fb0573d6000803e3d6000fd5b50505050610fbb3390565b6001600160a01b03167ffc30cddea38e2bf4d6ea7d3f9ed3b6ad7f176419f4963bd81318067a4aee73fe82604051610ff591815260200190565b60405180910390a25061100760018055565b565b611011611740565b61100761194f565b611021611740565b60008211801561103057508181115b61106e5760405162461bcd60e51b815260206004820152600f60248201526e496e76616c696420706572696f647360881b6044820152606401610540565b600b91909155600c55565b611081611740565b6107d08111156110c25760405162461bcd60e51b815260206004820152600c60248201526b08ccaca40e8dede40d0d2ced60a31b6044820152606401610540565b600f55565b600260205281600052604060002081815481106110e357600080fd5b600091825260209091206006909102018054600182015460028301546003840154600485015460059095015493965091945092909160ff1686565b611126611740565b60008211801561113557508181115b6111735760405162461bcd60e51b815260206004820152600f60248201526e496e76616c696420616d6f756e747360881b6044820152606401610540565b600991909155600a55565b60008060008060026000866001600160a01b03166001600160a01b03168152602001908152602001600020805480602002602001604051908101604052809291908181526020016000905b828210156112365760008481526020908190206040805160c08101825260068602909201805483526001808201548486015260028201549284019290925260038101546060840152600481015460808401526005015460ff16151560a083015290835290920191016111c9565b505050506001600160a01b0386166000908152600360205260408120549192505b82518110156112e45782818151811061127257611272611ce5565b602002602001015160a00151156112d25782818151811061129557611295611ce5565b602002602001015160000151866112ac9190611dae565b95506112b8878261176d565b6112c29083611dae565b9150836112ce81611d95565b9450505b806112dc81611d95565b915050611257565b509250509193909250565b6112f7611740565b61100760006119a4565b611309611716565b6113116119f4565b60095482101561135a5760405162461bcd60e51b8152602060048201526014602482015273416d6f756e742062656c6f77206d696e696d756d60601b6044820152606401610540565b600a548211156113a35760405162461bcd60e51b8152602060048201526014602482015273416d6f756e742061626f7665206d6178696d756d60601b6044820152606401610540565b600b5481101580156113b75750600c548111155b6113f95760405162461bcd60e51b8152602060048201526013602482015272125b9d985b1a59081b1bd8dac81c195c9a5bd9606a1b6044820152606401610540565b6001600160a01b037f0000000000000000000000000000000000000000000000000000000000000000166323b872dd336040516001600160e01b031960e084901b1681526001600160a01b039091166004820152306024820152604481018590526064016020604051808303816000875af115801561147c573d6000803e3d6000fd5b505050506040513d601f19601f820116820180604052508101906114a09190611d5d565b5060006114ad8383611a1f565b336000908152600260208181526040808420815160c08101835289815242818501818152938201908152606082018a815260808301898152600160a0850181815286548083018855968b529790992093516006909502909301938455935196830196909655945193810193909355516003830155915160048083019190915591516005909101805460ff191691151591909117905554909150611551908490611dae565b6004553360009081526007602052604090205460ff1661159857336000908152600760205260409020805460ff1916600190811790915560065461159491611dae565b6006555b6040805184815260208101849052808201839052905133917fb4caaf29adda3eefee3ad552a8e85058589bf834c7466cae4ee58787f70589ed919081900360600190a2506115e560018055565b5050565b6115f1611740565b600e805460ff19811660ff90911615179055565b61160d611740565b611007611b0c565b600d818154811061162557600080fd5b60009182526020909120600290910201805460019091015490915082565b61164b611740565b6001600160a01b03811661167557604051631e4fbdf760e01b815260006004820152602401610540565b610753816119a4565b611686611740565b6064811015801561169957506113888111155b6116d85760405162461bcd60e51b815260206004820152601060248201526f415059206f7574206f662072616e676560801b6044820152606401610540565b600880549082905560408051828152602081018490527f787a1fca55641ce34a438271930bbb9401df20db2b4f510d4f252227d85df43d9101610870565b60026001540361173957604051633ee5aeb560e01b815260040160405180910390fd5b6002600155565b6000546001600160a01b031633146110075760405163118cdaa760e01b8152336004820152602401610540565b6001600160a01b038216600090815260026020526040812080548291908490811061179a5761179a611ce5565b60009182526020918290206040805160c081018252600690930290910180548352600181015493830193909352600283015490820152600382015460608201526004820154608082015260059091015460ff16151560a08201819052909150611807576000915050611862565b60008160400151426118199190611d4a565b90506000612710836080015184600001516118349190611d11565b61183e9190611d28565b905060006301e133806118518484611d11565b61185b9190611d28565b9450505050505b92915050565b6001600160a01b0381166000908152600260205260408120905b815481101561194a5781818154811061189d5761189d611ce5565b600091825260209091206005600690920201015460ff16156119385760006118c5848361176d565b90508015611936576001600160a01b0384166000908152600360205260409020546118f1908290611dae565b6001600160a01b0385166000908152600360205260409020558254429084908490811061192057611920611ce5565b9060005260206000209060060201600201819055505b505b8061194281611d95565b915050611882565b505050565b611957611b4f565b6000805460ff60a01b191690557f5db9ee0a495bf2e6ff9c91a7834c1ba4fdd244a5e8aa4e537bd38aeae4b073aa335b6040516001600160a01b03909116815260200160405180910390a1565b600080546001600160a01b038381166001600160a01b0319831681178455604051919092169283917f8be0079c531659141344cd1fd0a4f28419497f9722a3daafe3b4186f6b6457e09190a35050565b600054600160a01b900460ff16156110075760405163d93c066560e01b815260040160405180910390fd5b600854600d54600091905b8015611ab857600d611a3d600183611d4a565b81548110611a4d57611a4d611ce5565b9060005260206000209060020201600001548510611aa657600d611a72600183611d4a565b81548110611a8257611a82611ce5565b90600052602060002090600202016001015482611a9f9190611dae565b9150611ab8565b80611ab081611dc1565b915050611a2a565b506301e133808310611ad757611ad0816101f4611dae565b9050611b05565b62ed4e008310611aed57611ad08161012c611dae565b6276a7008310611b0557611b02816096611dae565b90505b9392505050565b611b146119f4565b6000805460ff60a01b1916600160a01b1790557f62e78cea01bee320cd4e420270b5ea74000d11b0c9f74754ebdbfc544b05a2586119873390565b600054600160a01b900460ff1661100757604051638dfc202b60e01b815260040160405180910390fd5b600060208284031215611b8b57600080fd5b5035919050565b60008060408385031215611ba557600080fd5b50508035926020909101359150565b80356001600160a01b0381168114611bcb57600080fd5b919050565b600060208284031215611be257600080fd5b611b0582611bb4565b600081518084526020808501945080840160005b83811015611c1b57815187529582019590820190600101611bff565b509495945050505050565b60a081526000611c3960a0830188611beb565b602083820381850152611c4c8289611beb565b91508382036040850152611c608288611beb565b91508382036060850152611c748287611beb565b8481036080860152855180825282870193509082019060005b81811015611cab578451151583529383019391830191600101611c8d565b50909a9950505050505050505050565b60008060408385031215611cce57600080fd5b611cd783611bb4565b946020939093013593505050565b634e487b7160e01b600052603260045260246000fd5b634e487b7160e01b600052601160045260246000fd5b808202811582820484141761186257611862611cfb565b600082611d4557634e487b7160e01b600052601260045260246000fd5b500490565b8181038181111561186257611862611cfb565b600060208284031215611d6f57600080fd5b81518015158114611b0557600080fd5b634e487b7160e01b600052604160045260246000fd5b600060018201611da757611da7611cfb565b5060010190565b8082018082111561186257611862611cfb565b600081611dd057611dd0611cfb565b50600019019056fea264697066735822122061f12dc9fbd9b7c73118d96fe31356c8e5aee53186ede5b4489c1aab2db528da64736f6c63430008140033",
  "linkReferences": {},
  "deployedLinkReferences": {}
}