{
  "_format": "hh-sol-artifact-1",
  "contractName": "SudoToken",
  "sourceName": "contracts/SudoToken.sol",
  "abi": [
    {
      "inputs": [],
      "stateMutability": "nonpayable",
      "type": "constructor"
    },
    {
      "inputs": [
        {
          "internalType": "address",
          "name": "spender",
          "type": "address"
        },
        {
          "internalType": "uint256",
          "name": "allowance",
          "type": "uint256"
        },
        {
          "internalType": "uint256",
          "name": "needed",
          "type": "uint256"
        }
      ],
      "name": "ERC20InsufficientAllowance",
      "type": "error"
    },
    {
      "inputs": [
        {
          "internalType": "address",
          "name": "sender",
          "type": "address"
        },
        {
          "internalType": "uint256",
          "name": "balance",
          "type": "uint256"
        },
        {
          "internalType": "uint256",
          "name": "needed",
          "type": "uint256"
        }
      ],
      "name": "ERC20InsufficientBalance",
      "type": "error"
    },
    {
      "inputs": [
        {
          "internalType": "address",
          "name": "approver",
          "type": "address"
        }
      ],
      "name": "ERC20InvalidApprover",
      "type": "error"
    },
    {
      "inputs": [
        {
          "internalType": "address",
          "name": "receiver",
          "type": "address"
        }
      ],
      "name": "ERC20InvalidReceiver",
      "type": "error"
    },
    {
      "inputs": [
        {
          "internalType": "address",
          "name": "sender",
          "type": "address"
        }
      ],
      "name": "ERC20InvalidSender",
      "type": "error"
    },
    {
      "inputs": [
        {
          "internalType": "address",
          "name": "spender",
          "type": "address"
        }
      ],
      "name": "ERC20InvalidSpender",
      "type": "error"
    },
    {
      "inputs": [],
      "name": "EnforcedPause",
      "type": "error"
    },
    {
      "inputs": [],
      "name": "ExpectedPause",
      "type": "error"
    },
    {
      "inputs": [
        {
          "internalType": "address",
          "name": "owner",
          "type": "address"
        }
      ],
      "name": "OwnableInvalidOwner",
      "type": "error"
    },
    {
      "inputs": [
        {
          "internalType": "address",
          "name": "account",
          "type": "address"
        }
      ],
      "name": "OwnableUnauthorizedAccount",
      "type": "error"
    },
    {
      "inputs": [],
      "name": "ReentrancyGuardReentrantCall",
      "type": "error"
    },
    {
      "anonymous": false,
      "inputs": [
        {
          "indexed": true,
          "internalType": "string",
          "name": "allocation",
          "type": "string"
        },
        {
          "indexed": false,
          "internalType": "uint256",
          "name": "cap",
          "type": "uint256"
        }
      ],
      "name": "AllocationSet",
      "type": "event"
    },
    {
      "anonymous": false,
      "inputs": [
        {
          "indexed": true,
          "internalType": "address",
          "name": "owner",
          "type": "address"
        },
        {
          "indexed": true,
          "internalType": "address",
          "name": "spender",
          "type": "address"
        },
        {
          "indexed": false,
          "internalType": "uint256",
          "name": "value",
          "type": "uint256"
        }
      ],
      "name": "Approval",
      "type": "event"
    },
    {
      "anonymous": false,
      "inputs": [
        {
          "indexed": true,
          "internalType": "address",
          "name": "minter",
          "type": "address"
        },
        {
          "indexed": false,
          "internalType": "bool",
          "name": "authorized",
          "type": "bool"
        }
      ],
      "name": "MinterAuthorized",
      "type": "event"
    },
    {
      "anonymous": false,
      "inputs": [
        {
          "indexed": true,
          "internalType": "address",
          "name": "previousOwner",
          "type": "address"
        },
        {
          "indexed": true,
          "internalType": "address",
          "name": "newOwner",
          "type": "address"
        }
      ],
      "name": "OwnershipTransferred",
      "type": "event"
    },
    {
      "anonymous": false,
      "inputs": [
        {
          "indexed": false,
          "internalType": "address",
          "name": "account",
          "type": "address"
        }
      ],
      "name": "Paused",
      "type": "event"
    },
    {
      "anonymous": false,
      "inputs": [
        {
          "indexed": true,
          "internalType": "address",
          "name": "to",
          "type": "address"
        },
        {
          "indexed": false,
          "internalType": "uint256",
          "name": "amount",
          "type": "uint256"
        },
        {
          "indexed": false,
          "internalType": "string",
          "name": "allocation",
          "type": "string"
        }
      ],
      "name": "TokensMinted",
      "type": "event"
    },
    {
      "anonymous": false,
      "inputs": [
        {
          "indexed": true,
          "internalType": "address",
          "name": "from",
          "type": "address"
        },
        {
          "indexed": true,
          "internalType": "address",
          "name": "to",
          "type": "address"
        },
        {
          "indexed": false,
          "internalType": "uint256",
          "name": "value",
          "type": "uint256"
        }
      ],
      "name": "Transfer",
      "type": "event"
    },
    {
      "anonymous": false,
      "inputs": [
        {
          "indexed": false,
          "internalType": "address",
          "name": "account",
          "type": "address"
        }
      ],
      "name": "Unpaused",
      "type": "event"
    },
    {
      "inputs": [],
      "name": "MAX_SUPPLY",
      "outputs": [
        {
          "internalType": "uint256",
          "name": "",
          "type": "uint256"
        }
      ],
      "stateMutability": "view",
      "type": "function"
    },
    {
      "inputs": [
        {
          "internalType": "string",
          "name": "",
          "type": "string"
        }
      ],
      "name": "allocationCap",
      "outputs": [
        {
          "internalType": "uint256",
          "name": "",
          "type": "uint256"
        }
      ],
      "stateMutability": "view",
      "type": "function"
    },
    {
      "inputs": [
        {
          "internalType": "string",
          "name": "",
          "type": "string"
        }
      ],
      "name": "allocationUsed",
      "outputs": [
        {
          "internalType": "uint256",
          "name": "",
          "type": "uint256"
        }
      ],
      "stateMutability": "view",
      "type": "function"
    },
    {
      "inputs": [
        {
          "internalType": "address",
          "name": "owner",
          "type": "address"
        },
        {
          "internalType": "address",
          "name": "spender",
          "type": "address"
        }
      ],
      "name": "allowance",
      "outputs": [
        {
          "internalType": "uint256",
          "name": "",
          "type": "uint256"
        }
      ],
      "stateMutability": "view",
      "type": "function"
    },
    {
      "inputs": [
        {
          "internalType": "address",
          "name": "spender",
          "type": "address"
        },
        {
          "internalType": "uint256",
          "name": "value",
          "type": "uint256"
        }
      ],
      "name": "approve",
      "outputs": [
        {
          "internalType": "bool",
          "name": "",
          "type": "bool"
        }
      ],
      "stateMutability": "nonpayable",
      "type": "function"
    },
    {
      "inputs": [
        {
          "internalType": "address",
          "name": "",
          "type": "address"
        }
      ],
      "name": "authorizedMinters",
      "outputs": [
        {
          "internalType": "bool",
          "name": "",
          "type": "bool"
        }
      ],
      "stateMutability": "view",
      "type": "function"
    },
    {
      "inputs": [
        {
          "internalType": "address",
          "name": "account",
          "type": "address"
        }
      ],
      "name": "balanceOf",
      "outputs": [
        {
          "internalType": "uint256",
          "name": "",
          "type": "uint256"
        }
      ],
      "stateMutability": "view",
      "type": "function"
    },
    {
      "inputs": [
        {
          "internalType": "address[]",
          "name": "recipients",
          "type": "address[]"
        },
        {
          "internalType": "uint256[]",
          "name": "amounts",
          "type": "uint256[]"
        }
      ],
      "name": "bulkTransfer",
      "outputs": [],
      "stateMutability": "nonpayable",
      "type": "function"
    },
    {
      "inputs": [
        {
          "internalType": "uint256",
          "name": "value",
          "type": "uint256"
        }
      ],
      "name": "burn",
      "outputs": [],
      "stateMutability": "nonpayable",
      "type": "function"
    },
    {
      "inputs": [
        {
          "internalType": "address",
          "name": "account",
          "type": "address"
        },
        {
          "internalType": "uint256",
          "name": "value",
          "type": "uint256"
        }
      ],
      "name": "burnFrom",
      "outputs": [],
      "stateMutability": "nonpayable",
      "type": "function"
    },
    {
      "inputs": [],
      "name": "decimals",
      "outputs": [
        {
          "internalType": "uint8",
          "name": "",
          "type": "uint8"
        }
      ],
      "stateMutability": "view",
      "type": "function"
    },
    {
      "inputs": [
        {
          "internalType": "address",
          "name": "to",
          "type": "address"
        },
        {
          "internalType": "uint256",
          "name": "amount",
          "type": "uint256"
        }
      ],
      "name": "emergencyMint",
      "outputs": [],
      "stateMutability": "nonpayable",
      "type": "function"
    },
    {
      "inputs": [
        {
          "internalType": "string",
          "name": "allocation",
          "type": "string"
        }
      ],
      "name": "getRemainingAllocation",
      "outputs": [
        {
          "internalType": "uint256",
          "name": "",
          "type": "uint256"
        }
      ],
      "stateMutability": "view",
      "type": "function"
    },
    {
      "inputs": [],
      "name": "getTokenInfo",
      "outputs": [
        {
          "internalType": "string",
          "name": "name_",
          "type": "string"
        },
        {
          "internalType": "string",
          "name": "symbol_",
          "type": "string"
        },
        {
          "internalType": "uint8",
          "name": "decimals_",
          "type": "uint8"
        },
        {
          "internalType": "uint256",
          "name": "totalSupply_",
          "type": "uint256"
        },
        {
          "internalType": "uint256",
          "name": "maxSupply_",
          "type": "uint256"
        },
        {
          "internalType": "bool",
          "name": "paused_",
          "type": "bool"
        }
      ],
      "stateMutability": "view",
      "type": "function"
    },
    {
      "inputs": [
        {
          "internalType": "address",
          "name": "to",
          "type": "address"
        },
        {
          "internalType": "uint256",
          "name": "amount",
          "type": "uint256"
        },
        {
          "internalType": "string",
          "name": "allocation",
          "type": "string"
        }
      ],
      "name": "mintForAllocation",
      "outputs": [],
      "stateMutability": "nonpayable",
      "type": "function"
    },
    {
      "inputs": [],
      "name": "name",
      "outputs": [
        {
          "internalType": "string",
          "name": "",
          "type": "string"
        }
      ],
      "stateMutability": "view",
      "type": "function"
    },
    {
      "inputs": [],
      "name": "owner",
      "outputs": [
        {
          "internalType": "address",
          "name": "",
          "type": "address"
        }
      ],
      "stateMutability": "view",
      "type": "function"
    },
    {
      "inputs": [],
      "name": "pause",
      "outputs": [],
      "stateMutability": "nonpayable",
      "type": "function"
    },
    {
      "inputs": [],
      "name": "paused",
      "outputs": [
        {
          "internalType": "bool",
          "name": "",
          "type": "bool"
        }
      ],
      "stateMutability": "view",
      "type": "function"
    },
    {
      "inputs": [
        {
          "internalType": "address",
          "name": "tokenAddress",
          "type": "address"
        },
        {
          "internalType": "uint256",
          "name": "amount",
          "type": "uint256"
        }
      ],
      "name": "recoverERC20",
      "outputs": [],
      "stateMutability": "nonpayable",
      "type": "function"
    },
    {
      "inputs": [],
      "name": "renounceOwnership",
      "outputs": [],
      "stateMutability": "nonpayable",
      "type": "function"
    },
    {
      "inputs": [
        {
          "internalType": "string",
          "name": "allocation",
          "type": "string"
        },
        {
          "internalType": "uint256",
          "name": "cap",
          "type": "uint256"
        }
      ],
      "name": "setAllocationCap",
      "outputs": [],
      "stateMutability": "nonpayable",
      "type": "function"
    },
    {
      "inputs": [
        {
          "internalType": "address",
          "name": "minter",
          "type": "address"
        },
        {
          "internalType": "bool",
          "name": "authorized",
          "type": "bool"
        }
      ],
      "name": "setAuthorizedMinter",
      "outputs": [],
      "stateMutability": "nonpayable",
      "type": "function"
    },
    {
      "inputs": [],
      "name": "symbol",
      "outputs": [
        {
          "internalType": "string",
          "name": "",
          "type": "string"
        }
      ],
      "stateMutability": "view",
      "type": "function"
    },
    {
      "inputs": [],
      "name": "totalSupply",
      "outputs": [
        {
          "internalType": "uint256",
          "name": "",
          "type": "uint256"
        }
      ],
      "stateMutability": "view",
      "type": "function"
    },
    {
      "inputs": [
        {
          "internalType": "address",
          "name": "to",
          "type": "address"
        },
        {
          "internalType": "uint256",
          "name": "value",
          "type": "uint256"
        }
      ],
      "name": "transfer",
      "outputs": [
        {
          "internalType": "bool",
          "name": "",
          "type": "bool"
        }
      ],
      "stateMutability": "nonpayable",
      "type": "function"
    },
    {
      "inputs": [
        {
          "internalType": "address",
          "name": "from",
          "type": "address"
        },
        {
          "internalType": "address",
          "name": "to",
          "type": "address"
        },
        {
          "internalType": "uint256",
          "name": "value",
          "type": "uint256"
        }
      ],
      "name": "transferFrom",
      "outputs": [
        {
          "internalType": "bool",
          "name": "",
          "type": "bool"
        }
      ],
      "stateMutability": "nonpayable",
      "type": "function"
    },
    {
      "inputs": [
        {
          "internalType": "address",
          "name": "newOwner",
          "type": "address"
        }
      ],
      "name": "transferOwnership",
      "outputs": [],
      "stateMutability": "nonpayable",
      "type": "function"
    },
    {
      "inputs": [],
      "name": "unpause",
      "outputs": [],
      "stateMutability": "nonpayable",
      "type": "function"
    }
  ],
  "bytecode": "0x60806040523480156200001157600080fd5b50336040518060400160405280601481526020017f43796265724861636b205375646f20546f6b656e000000000000000000000000815250604051806040016040528060048152602001635355444f60e01b8152508160039081620000779190620004cc565b506004620000868282620004cc565b5050506001600160a01b038116620000b957604051631e4fbdf760e01b8152600060048201526024015b60405180910390fd5b620000c4816200021a565b506001600655604080516d67616d696e675f7265776172647360901b81526009600e8201819052825191829003602e0182206a211654585005212800000090556e7374616b696e675f7265776172647360881b8252600f8201819052825191829003602f0182206a108b2a2c280290940000009055637465616d60e01b82526004820181905282519182900360240182206a0c685fa11e01ec6f0000009081905567747265617375727960c01b835260088301829052835192839003602801832055686c697175696469747960b81b82528181015290519081900360290190206a084595161401484a0000009055600554620001da9061010090046001600160a01b03166a0422ca8b0a00a42500000062000274565b6a0422ca8b0a00a4250000006008604051620002049067747265617375727960c01b815260080190565b90815260405190819003602001902055620005c0565b600580546001600160a01b03838116610100818102610100600160a81b031985161790945560405193909204169182907f8be0079c531659141344cd1fd0a4f28419497f9722a3daafe3b4186f6b6457e090600090a35050565b6001600160a01b038216620002a05760405163ec442f0560e01b815260006004820152602401620000b0565b620002ae60008383620002b2565b5050565b620002bc620002ce565b620002c9838383620002f5565b505050565b60055460ff1615620002f35760405163d93c066560e01b815260040160405180910390fd5b565b6001600160a01b0383166200032457806002600082825462000318919062000598565b90915550620003989050565b6001600160a01b03831660009081526020819052604090205481811015620003795760405163391434e360e21b81526001600160a01b03851660048201526024810182905260448101839052606401620000b0565b6001600160a01b03841660009081526020819052604090209082900390555b6001600160a01b038216620003b657600280548290039055620003d5565b6001600160a01b03821660009081526020819052604090208054820190555b816001600160a01b0316836001600160a01b03167fddf252ad1be2c89b69c2b068fc378daa952ba7f163c4a11628f55a4df523b3ef836040516200041b91815260200190565b60405180910390a3505050565b634e487b7160e01b600052604160045260246000fd5b600181811c908216806200045357607f821691505b6020821081036200047457634e487b7160e01b600052602260045260246000fd5b50919050565b601f821115620002c957600081815260208120601f850160051c81016020861015620004a35750805b601f850160051c820191505b81811015620004c457828155600101620004af565b505050505050565b81516001600160401b03811115620004e857620004e862000428565b6200050081620004f984546200043e565b846200047a565b602080601f8311600181146200053857600084156200051f5750858301515b600019600386901b1c1916600185901b178555620004c4565b600085815260208120601f198616915b82811015620005695788860151825594840194600190910190840162000548565b5085821015620005885787850151600019600388901b60f8161c191681555b5050505050600190811b01905550565b80820180821115620005ba57634e487b7160e01b600052601160045260246000fd5b92915050565b61183680620005d06000396000f3fe608060405234801561001057600080fd5b50600436106101cf5760003560e01c8063715018a611610104578063a5ffefe6116100a2578063dd62ed3e11610071578063dd62ed3e14610405578063ed58bad81461043e578063f2fde38b14610451578063ff4a5b371461046457600080fd5b8063a5ffefe6146103a2578063a9059cbb146103b5578063aa2fe91b146103c8578063abb1dc44146103eb57600080fd5b80638456cb59116100de5780638456cb59146103565780638980f11f1461035e5780638da5cb5b1461037157806395d89b411461039a57600080fd5b8063715018a61461031057806379cc6790146103185780637fb4deb21461032b57600080fd5b8063313ce5671161017157806342966c681161014b57806342966c68146102b657806343785dc9146102c95780635c975abb146102dc57806370a08231146102e757600080fd5b8063313ce5671461028d57806332cb6b0c1461029c5780633f4ba83a146102ae57600080fd5b806318160ddd116101ad57806318160ddd1461022a5780631bf44a571461023c57806323b872dd1461024f5780632ae237ca1461026257600080fd5b806306fdde03146101d4578063095ea7b3146101f2578063153a1f3e14610215575b600080fd5b6101dc610477565b6040516101e9919061133d565b60405180910390f35b610205610200366004611373565b610509565b60405190151581526020016101e9565b6102286102233660046113e9565b610523565b005b6002545b6040519081526020016101e9565b61022e61024a3660046114f8565b610702565b61020561025d366004611535565b61074c565b61022e6102703660046114f8565b805160208183018101805160088252928201919093012091525481565b604051601281526020016101e9565b61022e6a52b7d2dcc80cd2e400000081565b610228610770565b6102286102c4366004611571565b610782565b6102286102d7366004611373565b61078f565b60055460ff16610205565b61022e6102f536600461158a565b6001600160a01b031660009081526020819052604090205490565b610228610867565b610228610326366004611373565b610879565b61022e6103393660046114f8565b805160208183018101805160098252928201919093012091525481565b61022861088e565b61022861036c366004611373565b61089e565b60055461010090046001600160a01b03166040516001600160a01b0390911681526020016101e9565b6101dc61099b565b6102286103b03660046115a5565b6109aa565b6102056103c3366004611373565b610c3a565b6102056103d636600461158a565b60076020526000908152604090205460ff1681565b6103f3610c48565b6040516101e9969594939291906115fc565b61022e61041336600461164c565b6001600160a01b03918216600090815260016020908152604080832093909416825291909152205490565b61022861044c36600461168d565b610c91565b61022861045f36600461158a565b610cf9565b6102286104723660046116c4565b610d34565b60606003805461048690611709565b80601f01602080910402602001604051908101604052809291908181526020018280546104b290611709565b80156104ff5780601f106104d4576101008083540402835291602001916104ff565b820191906000526020600020905b8154815290600101906020018083116104e257829003601f168201915b5050505050905090565b600033610517818585610dfd565b60019150505b92915050565b61052b610e0a565b8281146105785760405162461bcd60e51b8152602060048201526016602482015275082e4e4c2f2e640d8cadccee8d040dad2e6dac2e8c6d60531b60448201526064015b60405180910390fd5b60c88311156105bf5760405162461bcd60e51b8152602060048201526013602482015272546f6f206d616e7920726563697069656e747360681b604482015260640161056f565b60005b838110156106f15760008585838181106105de576105de611743565b90506020020160208101906105f3919061158a565b6001600160a01b03160361063d5760405162461bcd60e51b8152602060048201526011602482015270125b9d985b1a59081c9958da5c1a595b9d607a1b604482015260640161056f565b600083838381811061065157610651611743565b90506020020135116106965760405162461bcd60e51b815260206004820152600e60248201526d125b9d985b1a5908185b5bdd5b9d60921b604482015260640161056f565b6106df338686848181106106ac576106ac611743565b90506020020160208101906106c1919061158a565b8585858181106106d3576106d3611743565b90506020020135610e34565b806106e98161176f565b9150506105c2565b506106fc6001600655565b50505050565b60006008826040516107149190611788565b9081526020016040518091039020546009836040516107339190611788565b90815260200160405180910390205461051d91906117a4565b60003361075a858285610e93565b610765858585610e34565b506001949350505050565b610778610f0c565b610780610f3f565b565b61078c3382610f91565b50565b610797610f0c565b6a52b7d2dcc80cd2e4000000816107ad60025490565b6107b791906117b7565b11156107ff5760405162461bcd60e51b815260206004820152601760248201527613585e1a5b5d5b481cdd5c1c1b1e48195e18d959591959604a1b604482015260640161056f565b69d3c21bcecceda10000008111156108595760405162461bcd60e51b815260206004820152601860248201527f456d657267656e6379206d696e7420746f6f206c617267650000000000000000604482015260640161056f565b6108638282610fc7565b5050565b61086f610f0c565b6107806000610ffd565b610884823383610e93565b6108638282610f91565b610896610f0c565b610780611057565b6108a6610f0c565b306001600160a01b038316036108fe5760405162461bcd60e51b815260206004820152601a60248201527f43616e6e6f74207265636f766572205355444f20746f6b656e73000000000000604482015260640161056f565b816001600160a01b031663a9059cbb6109256005546001600160a01b036101009091041690565b6040516001600160e01b031960e084901b1681526001600160a01b039091166004820152602481018490526044016020604051808303816000875af1158015610972573d6000803e3d6000fd5b505050506040513d601f19601f8201168201806040525081019061099691906117ca565b505050565b60606004805461048690611709565b6109b2610e0a565b3360009081526007602052604090205460ff16610a0a5760405162461bcd60e51b8152602060048201526016602482015275139bdd08185d5d1a1bdc9a5e9959081d1bc81b5a5b9d60521b604482015260640161056f565b6001600160a01b038316610a605760405162461bcd60e51b815260206004820152601b60248201527f43616e6e6f74206d696e7420746f207a65726f20616464726573730000000000604482015260640161056f565b60008211610ab05760405162461bcd60e51b815260206004820181905260248201527f416d6f756e74206d7573742062652067726561746572207468616e207a65726f604482015260640161056f565b600981604051610ac09190611788565b90815260200160405180910390205482600883604051610ae09190611788565b908152602001604051809103902054610af991906117b7565b1115610b475760405162461bcd60e51b815260206004820152601760248201527f416c6c6f636174696f6e20636170206578636565646564000000000000000000604482015260640161056f565b6a52b7d2dcc80cd2e400000082610b5d60025490565b610b6791906117b7565b1115610baf5760405162461bcd60e51b815260206004820152601760248201527613585e1a5b5d5b481cdd5c1c1b1e48195e18d959591959604a1b604482015260640161056f565b81600882604051610bc09190611788565b90815260200160405180910390206000828254610bdd91906117b7565b90915550610bed90508383610fc7565b826001600160a01b03167f9d89e36eadf856db0ad9ffb5a569e07f95634dddd9501141ecf04820484ad0dc8383604051610c289291906117e7565b60405180910390a26109966001600655565b600033610517818585610e34565b606080600080600080610c59610477565b610c6161099b565b60126002546a52b7d2dcc80cd2e4000000610c7e60055460ff1690565b949b939a50919850965094509092509050565b610c99610f0c565b6001600160a01b038216600081815260076020908152604091829020805460ff191685151590811790915591519182527f9041c22ed79d1c19c69cc22fd9e38c93da4f2dd8cd32580594e232a8a18541cb91015b60405180910390a25050565b610d01610f0c565b6001600160a01b038116610d2b57604051631e4fbdf760e01b81526000600482015260240161056f565b61078c81610ffd565b610d3c610f0c565b6a52b7d2dcc80cd2e4000000811115610d975760405162461bcd60e51b815260206004820152601a60248201527f4361702065786365656473206d6178696d756d20737570706c79000000000000604482015260640161056f565b80600983604051610da89190611788565b90815260405190819003602001812091909155610dc6908390611788565b604051908190038120828252907fa5027d35c8f9af0df3bb751e525ac69d948497114ac6f11a83add051603c780190602001610ced565b6109968383836001611094565b600260065403610e2d57604051633ee5aeb560e01b815260040160405180910390fd5b6002600655565b6001600160a01b038316610e5e57604051634b637e8f60e11b81526000600482015260240161056f565b6001600160a01b038216610e885760405163ec442f0560e01b81526000600482015260240161056f565b610996838383611169565b6001600160a01b038381166000908152600160209081526040808320938616835292905220546000198110156106fc5781811015610efd57604051637dc7a0d960e11b81526001600160a01b0384166004820152602481018290526044810183905260640161056f565b6106fc84848484036000611094565b6005546001600160a01b036101009091041633146107805760405163118cdaa760e01b815233600482015260240161056f565b610f4761117c565b6005805460ff191690557f5db9ee0a495bf2e6ff9c91a7834c1ba4fdd244a5e8aa4e537bd38aeae4b073aa335b6040516001600160a01b03909116815260200160405180910390a1565b6001600160a01b038216610fbb57604051634b637e8f60e11b81526000600482015260240161056f565b61086382600083611169565b6001600160a01b038216610ff15760405163ec442f0560e01b81526000600482015260240161056f565b61086360008383611169565b600580546001600160a01b03838116610100818102610100600160a81b031985161790945560405193909204169182907f8be0079c531659141344cd1fd0a4f28419497f9722a3daafe3b4186f6b6457e090600090a35050565b61105f61119f565b6005805460ff191660011790557f62e78cea01bee320cd4e420270b5ea74000d11b0c9f74754ebdbfc544b05a258610f743390565b6001600160a01b0384166110be5760405163e602df0560e01b81526000600482015260240161056f565b6001600160a01b0383166110e857604051634a1406b160e11b81526000600482015260240161056f565b6001600160a01b03808516600090815260016020908152604080832093871683529290522082905580156106fc57826001600160a01b0316846001600160a01b03167f8c5be1e5ebec7d5bd14f71427d1e84f3dd0314c0f7b2291e5b200ac8c7c3b9258460405161115b91815260200190565b60405180910390a350505050565b61117161119f565b6109968383836111c3565b60055460ff1661078057604051638dfc202b60e01b815260040160405180910390fd5b60055460ff16156107805760405163d93c066560e01b815260040160405180910390fd5b6001600160a01b0383166111ee5780600260008282546111e391906117b7565b909155506112609050565b6001600160a01b038316600090815260208190526040902054818110156112415760405163391434e360e21b81526001600160a01b0385166004820152602481018290526044810183905260640161056f565b6001600160a01b03841660009081526020819052604090209082900390555b6001600160a01b03821661127c5760028054829003905561129b565b6001600160a01b03821660009081526020819052604090208054820190555b816001600160a01b0316836001600160a01b03167fddf252ad1be2c89b69c2b068fc378daa952ba7f163c4a11628f55a4df523b3ef836040516112e091815260200190565b60405180910390a3505050565b60005b838110156113085781810151838201526020016112f0565b50506000910152565b600081518084526113298160208601602086016112ed565b601f01601f19169290920160200192915050565b6020815260006113506020830184611311565b9392505050565b80356001600160a01b038116811461136e57600080fd5b919050565b6000806040838503121561138657600080fd5b61138f83611357565b946020939093013593505050565b60008083601f8401126113af57600080fd5b50813567ffffffffffffffff8111156113c757600080fd5b6020830191508360208260051b85010111156113e257600080fd5b9250929050565b600080600080604085870312156113ff57600080fd5b843567ffffffffffffffff8082111561141757600080fd5b6114238883890161139d565b9096509450602087013591508082111561143c57600080fd5b506114498782880161139d565b95989497509550505050565b634e487b7160e01b600052604160045260246000fd5b600082601f83011261147c57600080fd5b813567ffffffffffffffff8082111561149757611497611455565b604051601f8301601f19908116603f011681019082821181831017156114bf576114bf611455565b816040528381528660208588010111156114d857600080fd5b836020870160208301376000602085830101528094505050505092915050565b60006020828403121561150a57600080fd5b813567ffffffffffffffff81111561152157600080fd5b61152d8482850161146b565b949350505050565b60008060006060848603121561154a57600080fd5b61155384611357565b925061156160208501611357565b9150604084013590509250925092565b60006020828403121561158357600080fd5b5035919050565b60006020828403121561159c57600080fd5b61135082611357565b6000806000606084860312156115ba57600080fd5b6115c384611357565b925060208401359150604084013567ffffffffffffffff8111156115e657600080fd5b6115f28682870161146b565b9150509250925092565b60c08152600061160f60c0830189611311565b82810360208401526116218189611311565b91505060ff8616604083015284606083015283608083015282151560a0830152979650505050505050565b6000806040838503121561165f57600080fd5b61166883611357565b915061167660208401611357565b90509250929050565b801515811461078c57600080fd5b600080604083850312156116a057600080fd5b6116a983611357565b915060208301356116b98161167f565b809150509250929050565b600080604083850312156116d757600080fd5b823567ffffffffffffffff8111156116ee57600080fd5b6116fa8582860161146b565b95602094909401359450505050565b600181811c9082168061171d57607f821691505b60208210810361173d57634e487b7160e01b600052602260045260246000fd5b50919050565b634e487b7160e01b600052603260045260246000fd5b634e487b7160e01b600052601160045260246000fd5b60006001820161178157611781611759565b5060010190565b6000825161179a8184602087016112ed565b9190910192915050565b8181038181111561051d5761051d611759565b8082018082111561051d5761051d611759565b6000602082840312156117dc57600080fd5b81516113508161167f565b82815260406020820152600061152d604083018461131156fea2646970667358221220764e166fc2300f2ba94c528fe1f92991f1c97bf3fcbddd35e3349cd12f8f64f364736f6c63430008140033",
  "linkReferences": {},
  "deployedLinkReferences": {}
}